:100000000C942A000C94AC090C9447000C94470003
:100010000C9447000C9447000C9447000C94470044
:100020000C9447000C9447000C9447000C94470034
:100030000C9447000C9447000C9447000C94470024
:100040000C9447000C9447000C9447000C94470014
:100050000C94470011241FBECFE5D4E0DEBFCDBF16
:1000600011E0A8E6B1E001C01D92A037B107E1F7A9
:1000700011E0A0E6B0E0ECEAF3E302C005900D92D7
:10008000A836B107D9F70E94DE110C94D4190C944C
:100090000000EF92FF920F931F937B018C0120E0F1
:1000A00030E040E05FE40E94190388238CF0C8012F
:1000B000B70120E030E040E05FE40E94C1010E940F
:1000C000A7039B01AC01205030404040504806C07F
:1000D000C801B7010E94A7039B01AC01B901CA0185
:1000E0001F910F91FF90EF900895A0E0B0E0EBE733
:1000F000F0E00C949D19DC012B01FA019C919230E7
:1001000008F439C1EB018881823008F433C194309E
:1001100069F4843009F02FC111969C91119789815F
:10012000981709F428C1A0E6B0E025C1843009F48D
:1001300021C18230A9F4923009F01DC19A01AD01AC
:1001400088E0EA010990AE01E90109929E0181501F
:10015000C1F7E201898111969C918923818308C1AD
:10016000923009F407C112962D903C901397EB0141
:100170008A819B811496AD90BD90CD90DC901797AD
:10018000EC80FD800E811F819101281B390BB90184
:1001900037FF04C066277727621B730B6032710537
:1001A0000CF061C0121613066CF537014801062EDB
:1001B00004C096948794779467940A94D2F721E0C8
:1001C00030E040E050E004C0220F331F441F551FB1
:1001D0006A95D2F721503040404050402E213F21B7
:1001E00040235123211531054105510521F021E01E
:1001F00030E040E050E079018A01E628F72808293C
:1002000019293CC0232BD1F1260E371E350146019A
:10021000062E04C096948794779467940A94D2F734
:1002200021E030E040E050E004C0220F331F441FC3
:10023000551F6A95D2F721503040404050402A2146
:100240003B214C215D21211531054105510521F04E
:1002500021E030E040E050E059016A01A628B728CB
:10026000C828D9280BC0821593052CF01C01AA249C
:10027000BB24650103C0EE24FF24870111969C91E5
:10028000D20111968C91981709F445C0992339F041
:10029000A80197012A193B094C095D0906C0A6016E
:1002A00095012E193F09400B510B57FD08C01182D3
:1002B0003382228224833583468357831DC081E0A5
:1002C00081833382228288279927DC01821B930B4A
:1002D000A40BB50B84839583A683B7830DC0220F2F
:1002E000331F441F551F24833583468357838281E0
:1002F000938101979383828324813581468157813D
:10030000DA01C9010197A109B1098F5F9F4FAF4F72
:10031000BF4328F30BC0918333822282EA0CFB1C7B
:100320000C1D1D1DE482F5820683178383E0808304
:10033000248135814681578157FF1AC0C901AA27F8
:1003400097FDA095BA2F81709070A070B0705695EF
:10035000479537952795822B932BA42BB52B848318
:100360009583A683B7838281938101969383828349
:10037000DF0101C0D201CD01CDB7DEB7E2E10C94BF
:10038000B919A0E2B0E0E7ECF1E00C94A919698397
:100390007A838B839C832D833E834F835887E9E048
:1003A000EE2EF12CEC0EFD1ECE010196B7010E943F
:1003B0001F058E010F5E1F4FCE010596B8010E94EA
:1003C0001F058A8991E089278A8BC701B801AE0190
:1003D000475E5F4F0E9475000E944A04A096E6E0C7
:1003E0000C94C519A0E2B0E0E8EFF1E00C94A91973
:1003F00069837A838B839C832D833E834F835887C5
:10040000F9E0EF2EF12CEC0EFD1ECE010196B701A6
:100410000E941F058E010F5E1F4FCE010596B80189
:100420000E941F05C701B801AE01475E5F4F0E94E1
:1004300075000E944A04A096E6E00C94C519A0E25B
:10044000B0E0E5E2F2E00C949D1969837A838B8336
:100450009C832D833E834F835887CE010196BE0136
:10046000675F7F4F0E941F05CE010596BE016F5E3C
:100470007F4F0E941F059985923088F089898230CC
:10048000C8F0943019F4823051F404C0843029F457
:10049000923081F480E690E0C6C0923049F420E0CA
:1004A0009A858A89981321E02A87CE010996BBC0D4
:1004B000823049F420E09A858A89981321E02A8BBA
:1004C000CE014196B0C02D843E844F8458886D88FB
:1004D0007E888F88988CEE24FF248701AA24BB2471
:1004E000650140E050E060E070E0E0E0F0E0C10174
:1004F00081709070892BE9F0E60CF71C081D191D1E
:100500009A01AB012A0D3B1D4C1D5D1D80E090E062
:10051000A0E0B0E0E614F7040805190520F481E036
:1005200090E0A0E0B0E0BA01A901480F591F6A1F8E
:100530007B1FAA0CBB1CCC1CDD1C97FE08C081E0F5
:1005400090E0A0E0B0E0A82AB92ACA2ADB2A3196B6
:10055000E032F10549F0660C771C881C991C569412
:10056000479437942794C3CFFA85EA892B893C892D
:100570008B859C85280F391F2E5F3F4F17C0CA01FE
:1005800081709070892B61F016950795F794E79428
:1005900080E090E0A0E0B0E8E82AF92A0A2B1B2BC3
:1005A00076956795579547952F5F3F4F77FDE7CF36
:1005B0000CC0440F551F661F771F17FD4160EE0CDE
:1005C000FF1C001F111F21503040403090E05907A0
:1005D00090E0690790E4790760F32B8F3C8FDB0193
:1005E000CA018F779070A070B07080349105A1051A
:1005F000B10561F447FD0AC0E114F10401051105DC
:1006000029F0405C5F4F6F4F7F4F40781A8EFE1786
:1006100011F081E08A8F4D8F5E8F6F8F78A383E01A
:10062000898FCE0149960E944A04A096E2E10C947B
:10063000B919A8E1B0E0EFE1F3E00C94A9196983DE
:100640007A838B839C832D833E834F83588789E0F5
:10065000E82EF12CEC0EFD1ECE010196B7010E9492
:100660001F058E010F5E1F4FCE010596B8010E9437
:100670001F058985823040F08989823028F0C701C2
:10068000B8010E94970501C08FEF6896E6E00C94D0
:10069000C519A8E0B0E0EFE4F3E00C94A6199B01C3
:1006A000AC0183E08983DA01C9018827B7FD83950E
:1006B0009927AA27BB27B82E2115310541055105D9
:1006C00019F482E089833AC08823A9F0203080E0C1
:1006D000380780E0480780E8580729F460E070E0B8
:1006E00080E09FEC30C0EE24FF248701E21AF30A79
:1006F000040B150B02C079018A018EE1C82ED12CA2
:10070000DC82CB82ED82FE820F831887C801B7019D
:100710000E94FB0301971816190684F4082E04C0E2
:10072000EE0CFF1C001F111F0A94D2F7ED82FE820F
:100730000F831887C81AD90ADC82CB82BA82CE010D
:1007400001960E944A042896E9E00C94C219ACE094
:10075000B0E0EDEAF3E00C94AD1969837A838B8302
:100760009C83CE010196BE016B5F7F4F0E941F05E7
:100770008D81823061F1823050F1843021F48E819C
:10078000882351F12EC02F81388537FD20C06E811E
:100790002F3131051CF06623F9F023C08EE190E083
:1007A000821B930B29853A854B855C8504C0569541
:1007B0004795379527958A95D2F76623B1F05095DE
:1007C0004095309521953F4F4F4F5F4F0EC020E031
:1007D00030E040E050E009C02FEF3FEF4FEF5FE720
:1007E00004C020E030E040E050E8B901CA012C9696
:1007F000E2E00C94C919EF92FF920F931F937B01D3
:100800008C0180E0E81680E0F80681E0080780E0CF
:10081000180788F48FEFE816F1040105110531F08F
:1008200028F088E090E0A0E0B0E017C080E090E021
:10083000A0E0B0E012C080E0E81680E0F80680E0BA
:10084000080781E0180728F088E190E0A0E0B0E018
:1008500004C080E190E0A0E0B0E020E230E040E0C1
:1008600050E0281B390B4A0B5B0B04C0169507950B
:10087000F794E7948A95D2F7F701E859FF4F808102
:10088000281B310941095109C9011F910F91FF909E
:10089000EF900895DF92EF92FF920F931F93FC0168
:1008A000E480F58006811781D1808081823048F410
:1008B00080E090E0A0E1B0E0E82AF92A0A2B1B2BA7
:1008C000A5C0843009F49FC0823021F4EE24FF24B7
:1008D000870105C0E114F1040105110519F4E0E0F8
:1008E000F0E096C0628173819FEF623879070CF067
:1008F0005BC022E83FEF261B370B2A3131052CF075
:1009000020E030E040E050E02AC0B801A701022E0C
:1009100004C076956795579547950A94D2F781E07C
:1009200090E0A0E0B0E004C0880F991FAA1FBB1F91
:100930002A95D2F70197A109B1098E219F21A02301
:10094000B1230097A105B10521F081E090E0A0E07E
:10095000B0E09A01AB01282B392B4A2B5B2BDA0133
:10096000C9018F779070A070B07080349105A10597
:10097000B10539F427FF09C0205C3F4F4F4F5F4F4F
:1009800004C0215C3F4F4F4F5F4FE0E0F0E020306C
:10099000A0E03A07A0E04A07A0E45A0710F0E1E01F
:1009A000F0E079018A0127C06038710564F5FB0128
:1009B000E158FF4FD801C7018F779070A070B070D9
:1009C00080349105A105B10539F4E7FE0DC080E43E
:1009D00090E0A0E0B0E004C08FE390E0A0E0B0E0E1
:1009E000E80EF91E0A1F1B1F17FF05C01695079575
:1009F000F794E794319687E016950795F794E79476
:100A00008A95D1F705C0EE24FF248701EFEFF0E0CF
:100A10006E2F679566276795902F9F77D794DD2473
:100A2000D7948E2F8695492F462B582F5D29B701D5
:100A3000CA011F910F91FF90EF90DF900895FC0184
:100A4000DB01408151812281622F6F7770E0221F8C
:100A50002227221F9381892F880F822B282F30E095
:100A6000991F9927991F11969C931197211531056C
:100A7000A9F5411551056105710511F482E037C0F2
:100A800082E89FEF13969C938E9312979A01AB0185
:100A900067E0220F331F441F551F6A95D1F783E08B
:100AA0008C930DC0220F331F441F551F12968D913A
:100AB0009C911397019713969C938E9312972030D5
:100AC00080E0380780E0480780E4580758F3149620
:100AD0002D933D934D935C93179708952F3F3105C8
:100AE00079F4411551056105710519F484E08C9381
:100AF000089564FF03C081E08C9312C01C9210C063
:100B00002F57304013963C932E93129783E08C938B
:100B100087E0440F551F661F771F8A95D1F77064D1
:100B200014964D935D936D937C93179708951F933F
:100B3000DC01FB019C91923008F447C08081823037
:100B400008F443C0943051F411961C91843099F507
:100B50008181682F70E0611B71093FC0843021F0F2
:100B6000923031F48230B9F18181882389F12DC02E
:100B700011961C9111978230F1F081811817D9F4E8
:100B800012962D913C91139782819381821793073E
:100B900094F028173907BCF014968D919D910D9013
:100BA000BC91A02D248135814681578128173907B2
:100BB0004A075B0718F4112341F00AC08217930714
:100BC000A407B50740F4112319F061E070E005C0F7
:100BD0006FEF7FEF02C060E070E0CB011F910895DE
:100BE000DF93CF930F92CDB7DEB781E060EF40EF98
:100BF0000E94E90D0E94760B0E948A0B0E94B80B9E
:100C000089830E94AF0B90916B0181E060EF492FC7
:100C10000E94760EF1CFDF93CF9300D00F92CDB725
:100C2000DEB7789410926C0180E00E94DA0B81E0CC
:100C30000E94DA0B80E061E00E94330C81E061E009
:100C40000E94330C1B8212C080916C010E94CD0C5B
:100C500064EF71E080E090E00E94DD1380916C0110
:100C6000865F80936C018B818F5F8B838B818A3051
:100C700058F384E680936C011A8212C080916C0153
:100C80000E94CD0C64EF71E080E090E00E94DD13E3
:100C900080916C018A5080936C018A818F5F8A8376
:100CA0008A818A3058F380E060E00E94330C81E052
:100CB00060E00E94330C64EF71E080E090E00E94FD
:100CC000DD1380E580936C01198211C080E061E042
:100CD0000E94330C80916C010E94CD0C68EE73E091
:100CE00080E090E00E94DD1389818F5F8983898194
:100CF000882361F380E060E00E94330C0E94A71417
:100D00000F900F900F90CF91DF910895DF93CF93C5
:100D100000D0CDB7DEB7789480E580936C0180E099
:100D20000E94DA0B81E00E94DA0B80E061E00E9411
:100D3000330C81E061E00E94330C81E060EF40EF12
:100D40000E94E90D0E94760B0E948A0B0E94A60B5E
:100D50000E94B80B8A830E94AF0B81E060EF4A814A
:100D60000E94760E8A81833378F48A818F3160F015
:100D700080E061E00E94330C81E061E00E94330C6E
:100D800082E30E94CD0CE0CF8A818E3139F580E07C
:100D900060E00E94330C81E060E00E94330C64EF5D
:100DA00071E080E090E00E94DD13198210C080E0C5
:100DB00061E00E94330C80E50E94CD0C68EE73E088
:100DC00080E090E00E94DD1389818F5F89838981B3
:100DD000882369F380E580936C01B6CF8A818E31D8
:100DE000D0F480E060E00E94330C81E060E00E947B
:100DF000330C64EF71E080E090E00E94DD1382E349
:100E00000E94CD0C80E062E00E94330C81E062E041
:100E10000E94330C99CF80E061E00E94330C81E0A6
:100E200061E00E94330C80E50E94CD0C8DCFDF93F2
:100E3000CF9300D00F92CDB7DEB7789410926C01AB
:100E400080E00E94DA0B81E00E94DA0B80E061E032
:100E50000E94330C81E061E00E94330C1B8212C0BF
:100E600080916C010E94BF0C64EF71E080E090E023
:100E70000E94DD1380916C01865F80936C018B81F1
:100E80008F5F8B838B818A3058F384E680936C016B
:100E90001A8212C080916C010E94BF0C64EF71E055
:100EA00080E090E00E94DD1380916C018A50809375
:100EB0006C018A818F5F8A838A818A3058F380E04F
:100EC00060E00E94330C81E060E00E94330C64EF2C
:100ED00071E080E090E00E94DD1380E580936C017A
:100EE000198211C080E061E00E94330C80916C0196
:100EF0000E94BF0C68EE73E080E090E00E94DD137A
:100F000089818F5F89838981882361F380E060E034
:100F10000E94330C0E94A7140F900F900F90CF9156
:100F2000DF910895DF93CF9300D00F92CDB7DEB756
:100F300080E00E94171381E00E9417131A821B821F
:100F400037C019822FC080E06B810E94AA1380E015
:100F50000E945C1365E070E080E090E00E94DD1389
:100F600080E00E94831365E070E080E090E00E94E2
:100F7000DD1381E06A810E94AA1381E00E945C1364
:100F800065E070E080E090E00E94DD1381E00E9467
:100F9000831365E070E080E090E00E94DD138981BA
:100FA0008F5F89838981823370F28B818F5F8B831E
:100FB0008B818A3030F28A818F5F8A838A818A307E
:100FC00009F0BDCF1A82BBCFDF93CF9300D000D002
:100FD0000F92CDB7DEB71D8281E00E94BC1081E088
:100FE0000E94161281E00E9464128823D9F381E0E6
:100FF0000E94131119821A821B821C8213C081E085
:101000000E946412882319F08D818F5F8D838981FE
:101010009A81AB81BC810196A11DB11D89839A8300
:10102000AB83BC8389819A81AB81BC81803828E302
:10103000920721E0A20720E0B20708F38D818B30F0
:1010400030F068EE73E080E090E00E94DD1381E014
:101050000E94561168EE73E080E090E00E94DD137C
:101060001D82C0CFDF93CF9300D000D00F92CDB7B9
:10107000DEB71D8281E00E94BC1081E00E94161242
:1010800081E00E9464128823D9F381E00E94131149
:1010900019821A821B821C8213C081E00E94641292
:1010A000882319F08D818F5F8D8389819A81AB812F
:1010B000BC810196A11DB11D89839A83AB83BC833A
:1010C00089819A81AB81BC81803828E3920721E035
:1010D000A20720E0B20708F38D818B3020F088EE64
:1010E00093E00E94B11481E00E94561188EE93E0D3
:1010F0000E94B1141D82C4CFDF93CF9300D00F9212
:10110000CDB7DEB781E00E94BC1082E00E94BC1027
:1011100083E00E94BC1081E089838981282F30E020
:101120003B832A838A819B8182309105C9F02A8181
:101130003B812330310519F18A819B8181309105F2
:1011400061F781E00E94131168EE73E080E090E0A7
:101150000E94DD1381E00E94561183E08983DDCF78
:1011600082E00E94131168EE73E080E090E00E943C
:10117000DD1382E00E94561181E08983CECF83E0A7
:101180000E94131168EE73E080E090E00E94DD138E
:1011900083E00E94561182E08983BFCFDF93CF9313
:1011A00000D00F92CDB7DEB781E00E94BC1082E084
:1011B0000E94BC1083E00E94BC1081E08983898179
:1011C000282F30E03B832A838A819B8182309105DE
:1011D000B9F02A813B8123303105F9F08A819B8166
:1011E0008130910561F781E00E94131188EE93E050
:1011F0000E94B11481E00E94561183E08983DFCF01
:1012000082E00E94131188EE93E00E94B11482E004
:101210000E94561181E08983D2CF83E00E9413118E
:1012200088EE93E00E94B11483E00E94561182E0A0
:101230008983C5CFDF93CF9300D00F92CDB7DEB7B0
:1012400081E00E94BC1082E00E94BC1083E00E94FA
:10125000BC1081E089838981282F30E03B832A8379
:101260008A819B8182309105B9F02A813B812330AC
:101270003105F9F08A819B818130910561F781E028
:101280000E94131188EE93E00E94781781E00E947B
:10129000561183E08983DFCF82E00E94131188EE2C
:1012A00093E00E94781782E00E94561181E08983C2
:1012B000D2CF83E00E94131188EE93E00E9478174A
:1012C00083E00E94561182E08983C5CFEF920F938D
:1012D000DF93CF93CDB7DEB7789481E00E94BC1046
:1012E00082E00E94BC1083E00E94BC1081E08093E9
:1012F0006E0188E060E043E020E00AEFEE246894AD
:10130000E1F80E942D14FFCFEF920F93DF93CF935C
:10131000CDB7DEB783E00E94940F1092680181E0A0
:101320000E94BC1082E00E94BC1083E00E94BC10AE
:10133000809168018130E1F783E080936E0188E05D
:1013400060E043E020E00AEFEE246894E1F80E94B8
:101350002D1410926801ECCF1F920F920FB60F92CE
:1013600011242F933F934F935F936F937F938F93AA
:101370009F93AF93BF93EF93FF93DF93CF9300D0EF
:1013800000D000D0CDB7DEB781E080936801E2E500
:10139000F0E080818C83E2E5F0E01082ECE4F0E0A4
:1013A0008C81882F90E09183808381E068E04FEF0B
:1013B0000E94E90D81E068E00E94F20E8C81882F86
:1013C00090E0880F991F880F991F9E838D838D81D0
:1013D0009E8199232CF48D819E8101969E838D831D
:1013E0008D819E81959587959B838A838C81882F9B
:1013F00090E0880F991F2CE330E0B9010E94761924
:10140000CB018983E4E4F0E08981808381E06FEFA0
:101410000E94DB0C81E069810E941C0D2696DEBFD4
:10142000CDBFCF91DF91FF91EF91BF91AF919F9190
:101430008F917F916F915F914F913F912F910F907D
:101440000FBE0F901F901895EF920F93DF93CF93DD
:101450000F92CDB7DEB7898389810E94940F80E017
:1014600060E043E020E000E0EE240E942D140F90A5
:10147000CF91DF910F91EF900895DF93CF930F926B
:10148000CDB7DEB789830F90CF91DF910895DF93B9
:10149000CF9300D0CDB7DEB79A83898380916D0159
:1014A000E981FA8180830F900F90CF91DF910895A9
:1014B000EF920F93DF93CF93CDB7DEB780E060E07C
:1014C00043E020E000E0EE240E942D14CF91DF9154
:1014D0000F91EF900895DF93CF93CDB7DEB70E94C1
:1014E000A714CF91DF910895DF93CF93CDB7DEB7E7
:1014F000CF91DF910895DF93CF93CDB7DEB7E2E5CB
:10150000F0E010820E94A7140E94E00FCF91DF91BB
:101510000895DF93CF9300D0CDB7DEB79A83898348
:10152000ABE2B0E0E981FA819485E981FA818585B1
:10153000892B8C93AAE2B0E0E981FA819581E98157
:10154000FA818681982BE981FA818781982BE9813C
:10155000FA818085982BE981FA818185982BE98130
:10156000FA818285982BE981FA818385892B8C9376
:10157000A0E4B0E0E981FA819081E981FA8181817A
:10158000982BE981FA818281982BE981FA81838104
:10159000982BE981FA818481892B80688C93A0E45F
:1015A000B0E0E981FA8186859785892F99278C9308
:1015B000A9E2B0E0E981FA81868597858C930F9046
:1015C0000F90CF91DF910895DF93CF930F92CDB716
:1015D000DEB78983EBE2F0E08081882F90E08072B3
:1015E00090700097B9F3ECE2F0E0898180830F906E
:1015F000CF91DF910895DF93CF93CDB7DEB7EBE2C4
:10160000F0E080818823DCF7ECE2F0E08081CF918C
:10161000DF910895DF93CF9300D00F92CDB7DEB75F
:101620009B838A8319820EC08981282F30E08A81AA
:101630009B81FC01E20FF31F80810E94E40A8981F3
:101640008F5F89838981282F30E08A819B81FC010B
:10165000E20FF31F8081882339F70F900F900F90CE
:10166000CF91DF9108950F931F93DF93CF9300D015
:101670000F92CDB7DEB79B838A8319828981282F89
:1016800030E08A819B818C01020F131F0E94FB0AAC
:10169000F80180830FC089818F5F89838981282F1A
:1016A00030E08A819B818C01020F131F0E94FB0A8C
:1016B000F80180838981282F30E08A819B81FC0199
:1016C000E20FF31F8081833231F78981282F30E0C8
:1016D0008A819B81FC01E20FF31F10820F900F9013
:1016E0000F90CF91DF911F910F910895DF93CF93CA
:1016F000CDB7DEB780E061E04FEF0E94E90D80E0FA
:1017000061E041E00E94760E83E00E94240ACF91BE
:10171000DF910895DF93CF93CDB7DEB70E94E00F3E
:1017200080E061E041E00E94760E61E070E080E0E0
:1017300090E00E94DD1380E061E040E00E94760EC0
:1017400083E00E94940FCF91DF910895DF93CF93B0
:10175000CDB7DEB70E94580ACF91DF910895DF938D
:10176000CF93CDB7DEB70E947B0ACF91DF9108956A
:10177000DF93CF9300D0CDB7DEB780916801882387
:10178000E1F310926801CE0102960E94470A8A8115
:101790009FE0692F0E946A19898389810F900F90B9
:1017A000CF91DF910895DF93CF93CDB7DEB7CF917F
:1017B000DF910895DF93CF9300D00F92CDB7DEB7BE
:1017C00089838981282F30E03B832A838A819B810A
:1017D000009731F02A813B812130310501F13DC074
:1017E00083E060E14FEF0E94E90D83E060E140E0BB
:1017F0000E94760E83E064E04FEF0E94E90D83E0E3
:1018000064E040E00E94760E83E068E04FEF0E94C3
:10181000E90D83E068E040E00E94760E1EC083E0A0
:1018200060E24FEF0E94E90D83E060E240E00E9439
:10183000760E83E060E44FEF0E94E90D83E060E400
:1018400040E00E94760E83E060E84FEF0E94E90DD1
:1018500083E060E840E00E94760E0F900F900F90BA
:10186000CF91DF910895DF93CF93CDB7DEB728975F
:101870000FB6F894DEBF0FBECDBF89836A8389811E
:10188000282F30E038872F838F819885009731F09B
:101890002F81388521303105B1F168C08A81282F28
:1018A00030E03E832D838D819E8181309105A9F0AA
:1018B0002D813E8122303105D9F08D819E810097A6
:1018C00009F054C083E064E040E00E94760E83E0BB
:1018D00068E040E00E94760E49C083E064E040E0AA
:1018E0000E94760E83E068E048E00E94760E3EC0DB
:1018F00083E064E044E00E94760E83E068E040E02C
:101900000E94760E33C08A81282F30E03C832B83DF
:101910008B819C8181309105A1F02B813C8122300B
:101920003105D1F08B819C81009701F583E060E463
:1019300040E00E94760E83E060E840E00E94760E70
:1019400015C083E060E440E00E94760E83E060E82A
:1019500040E80E94760E0AC083E060E440E40E9402
:10196000760E83E060E840E00E94760E28960FB67F
:10197000F894DEBF0FBECDBFCF91DF910895DF9306
:10198000CF930F92CDB7DEB78983898165E00E943E
:1019900007160F90CF91DF910895DF93CF930F92A9
:1019A000CDB7DEB78983898162E00E94C1180F90AC
:1019B000CF91DF910895DF93CF9300D000D0CDB7C2
:1019C000DEB789836A838981282F30E03C832B83AB
:1019D0008B819C8181309105D1F02B813C8122301B
:1019E00031052CF48B819C81009761F01EC02B8106
:1019F0003C812230310581F08B819C8183309105BF
:101A000081F013C0EAE3F0E08A8180830EC0E7E34F
:101A1000F0E08A81808309C0E4E3F0E08A8180837A
:101A200004C0E1E3F0E08A8180830F900F900F9073
:101A30000F90CF91DF910895DF93CF9300D000D026
:101A4000CDB7DEB789836A838981282F30E03C8354
:101A50002B838B819C8181309105D1F02B813C813E
:101A6000223031052CF48B819C81009761F01EC0DF
:101A70002B813C812230310581F08B819C81833028
:101A8000910581F013C0EBE3F0E08A8180830EC002
:101A9000E8E3F0E08A81808309C0E5E3F0E08A8131
:101AA000808304C0E2E3F0E08A8180830F900F908E
:101AB0000F900F90CF91DF910895DF93CF9300D0D7
:101AC0000F92CDB7DEB789838981282F30E03B8321
:101AD0002A838A819B8181309105E9F02A813B81AB
:101AE000223031052CF48A819B81009761F02AC055
:101AF0002A813B8122303105B1F08A819B8183307C
:101B00009105C9F01FC0ABE3B0E0EBE3F0E08081EA
:101B100080958C9317C0A8E3B0E0E8E3F0E0808103
:101B200080958C930FC0A5E3B0E0E5E3F0E0808101
:101B300080958C9307C0A2E3B0E0E2E3F0E08081FF
:101B400080958C930F900F900F90CF91DF91089517
:101B5000DF93CF9300D000D0CDB7DEB78A838A81E0
:101B6000282F30E03C832B838B819C818130910531
:101B7000D1F02B813C81223031052CF48B819C816A
:101B8000009761F01EC02B813C812230310581F02D
:101B90008B819C818330910581F013C0E9E3F0E0F3
:101BA000808189830EC0E6E3F0E08081898309C0EB
:101BB000E3E3F0E08081898304C0E0E3F0E080812A
:101BC000898389810F900F900F900F90CF91DF91B3
:101BD0000895DF93CF9300D000D00F92CDB7DEB73A
:101BE00089836A834B838981282F30E03D832C834E
:101BF0008C819D818130910569F12C813D8122305C
:101C000031052CF48C819D81009769F067C02C818F
:101C10003D8122303105A9F18C819D818330910570
:101C200009F446C05BC08B81882359F4AAE3B0E075
:101C3000EAE3F0E08081982F8A81809589238C9354
:101C40004DC0AAE3B0E0EAE3F0E090818A81892BFD
:101C50008C9344C08B81882359F4A7E3B0E0E7E379
:101C6000F0E08081982F8A81809589238C9336C0FB
:101C7000A7E3B0E0E7E3F0E090818A81892B8C93C1
:101C80002DC08B81882359F4A4E3B0E0E4E3F0E0B5
:101C90008081982F8A81809589238C931FC0A4E32B
:101CA000B0E0E4E3F0E090818A81892B8C9316C048
:101CB0008B81882359F4A1E3B0E0E1E3F0E0808177
:101CC000982F8A81809589238C9308C0A1E3B0E086
:101CD000E1E3F0E090818A81892B8C930F900F9043
:101CE0000F900F900F90CF91DF910895DF93CF93D6
:101CF00000D000D00F92CDB7DEB789836A834B83C3
:101D00008981282F30E03D832C838C819D81813017
:101D1000910541F12C813D81223031052CF48C81DB
:101D20009D81009761F056C02C813D8122303105A4
:101D300061F18C819D8183309105D1F14BC0ABE382
:101D4000B0E0EBE3F0E08081982F8A8180958923D1
:101D50008C93ABE3B0E0EBE3F0E090818B81892BD7
:101D60008C9338C0A8E3B0E0E8E3F0E08081982FDE
:101D70008A81809589238C93A8E3B0E0E8E3F0E0C2
:101D800090818B81892B8C9325C0A5E3B0E0E5E39E
:101D9000F0E08081982F8A81809589238C93A5E338
:101DA000B0E0E5E3F0E090818B81892B8C9312C049
:101DB000A2E3B0E0E2E3F0E08081982F8A81809591
:101DC00089238C93A2E3B0E0E2E3F0E090818B8181
:101DD000892B8C930F900F900F900F900F90CF91B5
:101DE000DF910895DF93CF9300D000D0CDB7DEB759
:101DF00089836A838981282F30E03C832B838B8100
:101E00009C8181309105F1F02B813C81223031059C
:101E10002CF48B819C81009761F02EC02B813C813A
:101E200022303105C1F08B819C8183309105E1F036
:101E300023C0ABE3B0E0EBE3F0E090818A81892737
:101E40008C931AC0A8E3B0E0E8E3F0E090818A81C7
:101E500089278C9311C0A5E3B0E0E5E3F0E0908121
:101E60008A8189278C9308C0A2E3B0E0E2E3F0E026
:101E700090818A8189278C930F900F900F900F90FB
:101E8000CF91DF910895DF93CF9300D000D00F92D0
:101E9000CDB7DEB78A836B838A81282F30E03D83FC
:101EA0002C838C819D8181309105E1F02C813D81D5
:101EB000223031052CF48C819D81009761F026C081
:101EC0002C813D8122303105A1F08C819D818330B0
:101ED0009105B1F01BC0E9E3F0E090818B8189238B
:101EE000898314C0E6E3F0E090818B8189238983A4
:101EF0000DC0E3E3F0E090818B818923898306C0E4
:101F0000E0E3F0E090818B818923898389818823B4
:101F100011F08FEF898389810F900F900F900F90B0
:101F20000F90CF91DF910895DF93CF9300D00F9260
:101F3000CDB7DEB78983F894ABE5B0E0EBE5F0E030
:101F4000808180648C9383E064E040E00E94E90D2E
:101F50008981282F30E03B832A838A819B818130CD
:101F6000910581F02A813B812230310514F18A816B
:101F70009B818230910571F02A813B8123303105AC
:101F800089F017C0A5E5B0E0E5E5F0E08081846068
:101F90008C930FC0A5E5B0E0E5E5F0E080818160BD
:101FA0008C9307C0A5E5B0E0E5E5F0E080818360B3
:101FB0008C9378940F900F900F90CF91DF910895AC
:101FC000DF93CF93CDB7DEB7F894ABE5B0E0EBE5A8
:101FD000F0E080818F7B8C93A5E5B0E0E5E5F0E053
:101FE00080818C7F8C93CF91DF910895DF93CF9385
:101FF00000D00F92CDB7DEB78983F894ABE5B0E09F
:10200000EBE5F0E0808180688C9383E068E040E05D
:102010000E94E90D8981282F30E03B832A838A8141
:102020009B818130910581F02A813B8122303105ED
:1020300014F18A819B818230910571F02A813B8164
:102040002330310589F017C0A5E5B0E0E5E5F0E003
:10205000808184608C930FC0A5E5B0E0E5E5F0E0F9
:10206000808181608C9307C0A5E5B0E0E5E5F0E0F4
:10207000808183608C9378940F900F900F90CF9114
:10208000DF910895DF93CF93CDB7DEB7F894ABE53A
:10209000B0E0EBE5F0E080818F778C93A5E5B0E0D0
:1020A000E5E5F0E080818C7F8C937894CF91DF918F
:1020B0000895DF93CF9300D00F92CDB7DEB7898319
:1020C000F894ABE5B0E0EBE5F0E0808180628C93C2
:1020D00081E064E040E00E94E90D8981282F30E032
:1020E0003B832A838A819B818130910581F02A81FB
:1020F0003B812230310514F18A819B818230910528
:1021000071F02A813B812330310589F017C0A5E5A4
:10211000B0E0E5E5F0E0808184608C930FC0A5E538
:10212000B0E0E5E5F0E0808181608C9307C0A5E533
:10213000B0E0E5E5F0E0808183608C9378940F90C7
:102140000F900F90CF91DF910895DF93CF93CDB78C
:10215000DEB7F894ABE5B0E0EBE5F0E080818F7D91
:102160008C93A5E5B0E0E5E5F0E080818C7F8C9371
:102170007894CF91DF910895DF93CF9300D00F92A1
:10218000CDB7DEB789838981282F30E03B832A834E
:102190008A819B818130910501F12A813B81223026
:1021A00031052CF48A819B81009761F036C02A8129
:1021B0003B8122303105E1F08A819B81833091059A
:1021C00011F12BC081E060E14FEF0E94E90D81E049
:1021D00060E140E00E94760E20C081E060E24FEFB7
:1021E0000E94E90D81E060E240E00E94760E15C099
:1021F00081E060E44FEF0E94E90D81E060E440E09F
:102200000E94760E0AC081E060E84FEF0E94E90D5F
:1022100081E060E840E00E94760E0F900F900F90F2
:10222000CF91DF910895DF93CF9300D00F92CDB778
:10223000DEB789838981282F30E03B832A838A8116
:102240009B8181309105D9F02A813B812230310573
:102250002CF48A819B81009761F022C02A813B8106
:102260002230310591F08A819B818330910599F06C
:1022700017C081E060E140E10E94760E11C081E06C
:1022800060E240E20E94760E0BC081E060E440E430
:102290000E94760E05C081E060E840E80E94760E5C
:1022A0000F900F900F90CF91DF910895DF93CF9310
:1022B00000D00F92CDB7DEB789838981282F30E017
:1022C0003B832A838A819B8181309105D9F02A81C1
:1022D0003B81223031052CF48A819B81009761F08B
:1022E00022C02A813B812230310591F08A819B8175
:1022F0008330910599F017C081E060E140E00E94D1
:10230000760E11C081E060E240E00E94760E0BC0C4
:1023100081E060E440E00E94760E05C081E060E864
:1023200040E00E94760E0F900F900F90CF91DF91BA
:102330000895DF93CF9300D00F92CDB7DEB7898396
:10234000E8E3F0E0808169810E94F20E8981282F04
:1023500030E03B832A838A819B8181309105D1F0D3
:102360002A813B81223031052CF48A819B810097A0
:1023700061F01EC02A813B812230310581F08A81C3
:102380009B818330910581F013C081E060E10E9460
:10239000F20E0EC081E060E20E94F20E09C081E000
:1023A00060E40E94F20E04C081E060E80E94F20E38
:1023B0000F900F900F90CF91DF910895DF93CF93FF
:1023C000CDB7DEB761970FB6F894DEBF0FBECDBFB5
:1023D00081E06FEF0E94DB0C81E060E00E941C0D49
:1023E000198286E08E831D8282E08E871B821C828A
:1023F00080E18A8788E08B878FEC90E0998B888BCF
:10240000CE0102960E94890A0E94FB0A8983898173
:10241000982F9295907F81E0692F0E941C0D64EFA8
:1024200071E080E090E00E94DD13EECFDF93CF9368
:1024300000D00F92CDB7DEB789838981282F30E095
:102440003B832A838A819B818230910531F12A81E5
:102450003B812330310554F48A819B81009789F0B8
:102460002A813B812130310591F028C08A819B81EE
:1024700083309105C1F02A813B8124303105C9F0B8
:102480001DC082E060E140E00E94E90D17C081E0DC
:1024900064E040E00E94E90D11C080E064E040E0AB
:1024A0000E94E90D0BC080E068E040E00E94E90D69
:1024B00005C083E064E040E00E94E90D0F900F90BA
:1024C0000F90CF91DF910895DF93CF9300D000D08C
:1024D000CDB7DEB78A8319828A81282F30E03C830A
:1024E0002B838B819C818230910509F450C02B8114
:1024F0003C812330310554F48B819C81009799F005
:102500002B813C812130310541F189C08B819C8137
:102510008330910509F454C02B813C81243031056E
:1025200009F466C07CC082E060E10E94430F88230A
:1025300009F475C06EE170E080E090E00E94DD1368
:1025400082E060E10E94430F882309F468C082E0C2
:1025500060E10E94430F898362C081E064E00E94D1
:10256000430F882309F45BC06EE170E080E090E0E7
:102570000E94DD1381E064E00E94430F882309F488
:102580004EC081E064E00E94430F898348C080E030
:1025900064E00E94430F882309F441C06EE170E0BB
:1025A00080E090E00E94DD1380E064E00E94430F31
:1025B0008823A9F180E064E00E94430F89832FC043
:1025C00080E068E00E94430F882349F16EE170E0EB
:1025D00080E090E00E94DD1380E068E00E94430FFD
:1025E0008823E9F080E068E00E94430F898317C0E8
:1025F00083E064E00E94430F882389F06EE170E07D
:1026000080E090E00E94DD1383E064E00E94430FCD
:10261000882329F083E064E00E94430F8983898145
:102620000F900F900F900F90CF91DF910895DF934F
:10263000CF9300D00F92CDB7DEB789838981282F41
:1026400030E03B832A838A819B81009731F02A8185
:102650003B8121303105B1F029C081E06FE04FEFBF
:102660000E94E90D81E06FE04FE00E94760E83E06A
:1026700064E04FEF0E94E90D83E064E044E00E94D3
:10268000760E14C081E06FE04FEF0E94E90D81E00B
:102690006FE04FE00E94760E83E068E04FEF0E940B
:1026A000E90D83E068E048E00E94760E0F900F90FD
:1026B0000F90CF91DF910895DF93CF9300D00F92C9
:1026C000CDB7DEB789838981282F30E03B832A8309
:1026D0008A819B81009731F02A813B81213031052D
:1026E00039F00BC083E064E044E00E94760E05C040
:1026F00083E068E048E00E94760E0F900F900F9004
:10270000CF91DF910895DF93CF9300D00F92CDB793
:10271000DEB789838981282F30E03B832A838A8131
:102720009B81009731F02A813B812130310539F0BE
:102730000BC083E064E040E00E94760E05C083E0B9
:1027400068E040E00E94760E0F900F900F90CF91BE
:10275000DF910895DF93CF9300D000D0CDB7DEB7DF
:1027600089836A838981282F30E03C832B838B8186
:102770009C81009731F02B813C812130310561F043
:1027800015C081E06FE040E00E94760E81E06FE0CE
:102790004A810E94760E0AC081E06FE040E00E940C
:1027A000760E81E06FE04A810E94760E0F900F90C6
:1027B0000F900F90CF91DF910895DF93CF93CDB716
:1027C000DEB72C970FB6F894DEBF0FBECDBF69877A
:1027D0007A878B879C871D821E821F82188627C05E
:1027E00019821A821B821C820BC089819A81AB815B
:1027F000BC810196A11DB11D89839A83AB83BC83E3
:1028000089819A81AB81BC81813B21E0920720E0E4
:10281000A20720E0B20748F38D819E81AF81B88581
:102820000196A11DB11D8D839E83AF83B8872D8135
:102830003E814F81588589859A85AB85BC8528174F
:1028400039074A075B0760F22C960FB6F894DEBF93
:102850000FBECDBFCF91DF910895EF920F93DF931D
:10286000CF93CDB7DEB728970FB6F894DEBF0FBE73
:10287000CDBF89836A834B832C830D83EE8289814C
:10288000282F30E038872F838F819885009731F08B
:102890002F81388528303105A9F027C0E2E5F0E026
:1028A0008C818083E9E5F0E08E818083ECE5F0E0C7
:1028B0008D818083E3E5F0E09B818A81892B8068AC
:1028C000808313C0E2E5F0E08C818083ECE5F0E0EA
:1028D0008D818083E9E5F0E08E818083E3E5F0E09F
:1028E0009B818A81892B8068808328960FB6F89413
:1028F000DEBF0FBECDBFCF91DF910F91EF90089556
:10290000DF93CF930F92CDB7DEB78983E2E5F0E096
:10291000898180830F90CF91DF910895DF93CF93CA
:102920000F92CDB7DEB7E2E5F0E08081898389813F
:102930000F90CF91DF910895DF93CF93CDB7DEB79E
:10294000E3E5F0E081E08083CF91DF910895DF93AC
:10295000CF93CDB7DEB7E3E5F0E01082CF91DF9102
:102960000895EF920F93DF93CF9300D0CDB7DEB7EA
:102970009A83898388E060E043E020E00AEFEE2458
:102980000E942D1418C0E8E5F0E08081882F90E0C7
:10299000827090700097B9F3A8E5B0E0E8E5F0E048
:1029A000808182608C93E2E5F0E0108289819A81D7
:1029B00001979A83898389819A81009721F70E94E0
:1029C000A7140F900F90CF91DF910F91EF90089582
:1029D000EF920F93DF93CF9300D0CDB7DEB79A83FA
:1029E000898388E060E043E020E00AEFEE24689409
:1029F000E1F80E942D140F900F90CF91DF910F916D
:102A0000EF900895EF920F93DF93CF9300D000D013
:102A1000CDB7DEB769837A838B839C8388E060E0DF
:102A200041E020E000E1EE240E942D141DC0E2E50B
:102A3000F0E09081ECE5F0E080819817C0F3A8E524
:102A4000B0E0E8E5F0E0808182608C93E2E5F0E0C0
:102A5000108289819A81AB81BC810197A109B1095A
:102A600089839A83AB83BC8389819A81AB81BC8142
:102A70000097A105B105D9F60E94A7140F900F90F9
:102A80000F900F90CF91DF910F91EF900895DF930A
:102A9000CF9300D000D0CDB7DEB789836A83E2E55B
:102AA000F0E01082E9E5F0E01082ECE5F0E08981E9
:102AB000882F90E0982F882724E630E0B9010E9403
:102AC0007619CB0180838A81282F30E03C832B83C9
:102AD0008B819C818330910529F12B813C812430AD
:102AE00031055CF48B819C818130910589F02B81CB
:102AF0003C812230310589F023C08B819C81843058
:102B00009105A9F02B813C8125303105A9F018C031
:102B1000E3E5F0E089E6808313C0E3E5F0E08AE6D0
:102B200080830EC0E3E5F0E08BE6808309C0E3E537
:102B3000F0E08CE6808304C0E3E5F0E08DE680837E
:102B40000F900F900F900F90CF91DF910895DF932A
:102B5000CF9300D000D0CDB7DEB789836A83E2E59A
:102B6000F0E01082E9E5F0E01082ECE5F0E0898128
:102B7000882F90E0982F882724E630E0B9010E9442
:102B80007619CB0180838A81282F30E03C832B8308
:102B90008B819C818330910529F12B813C812430EC
:102BA00031055CF48B819C818130910589F02B810A
:102BB0003C812230310589F023C08B819C81843097
:102BC0009105A9F02B813C8125303105A9F018C071
:102BD000E3E5F0E081E6808313C0E3E5F0E082E620
:102BE00080830EC0E3E5F0E083E6808309C0E3E57F
:102BF000F0E084E6808304C0E3E5F0E085E68083CE
:102C00000F900F900F900F90CF91DF910895EF925A
:102C10000F93DF93CF9300D000D000D0CDB7DEB7B5
:102C20008B836C838B81843611F483E68B838C8158
:102C3000282F30E03E832D838D819E818330910546
:102C400031F02D813E8125303105B9F160C086E03B
:102C50008A838B81882F90E0AA2797FDA095BA2FB1
:102C6000BC01CD010E944903DC01CB01BC01CD01B7
:102C700020E030E040E250E40E941F02DC01CB0182
:102C8000BC01CD0120E030E040EC50E40E94F201B4
:102C9000DC01CB01BC01CD010E944900DC01CB016C
:102CA000898380E060E043E02A8109810F2EF3E010
:102CB000EF2EF02D0E942D142AC01A828B81882FAE
:102CC00090E0AA2797FDA095BA2FBC01CD010E94E4
:102CD0004903DC01CB01BC01CD012AE037ED43E221
:102CE00050E40E941F02DC01CB01BC01CD010E9417
:102CF0004900DC01CB01898380E060E045E02A8166
:102D000009810F2EF3E0EF2EF02D0E942D148A8101
:102D100080936F0126960FB6F894DEBF0FBECDBF2D
:102D2000CF91DF910F91EF900895AF92CF92DF9204
:102D3000EF92FF920F931F93DF93CF93CDB7DEB740
:102D40002F970FB6F894DEBF0FBECDBF89837B836C
:102D50006A834C833E832D8318870F83FA86E98626
:102D6000DC86CB86AD868981282F30E03F872E8791
:102D70008E859F858830910521F12E853F852831EC
:102D8000310509F443C08E859F85009709F062C024
:102D9000EDE4F0E08D819E81892F99278083ECE41A
:102DA000F0E08D818083E9E5F0E08D858083EFE4BC
:102DB000F0E08A8183608083EEE4F0E08C818083A0
:102DC00049C0EDE4F0E08D819E81892F99278083B1
:102DD000ECE4F0E08D818083E9E5F0E08D8580838F
:102DE000EBE4F0E08F819885892F99278083EAE4CE
:102DF000F0E08F818083EFE4F0E08A81836080835C
:102E0000EEE4F0E08C818860808324C0EDE4F0E0A3
:102E10008D819E81892F99278083ECE4F0E08D815C
:102E20008083E9E5F0E08D858083E7E4F0E08B8541
:102E30009C85892F99278083E6E4F0E08B85808349
:102E4000EFE4F0E08A8183608083EEE4F0E08C813F
:102E5000886180832F960FB6F894DEBF0FBECDBF7A
:102E6000CF91DF911F910F91FF90EF90DF90CF9066
:102E7000AF900895DF93CF9300D0CDB7DEB79A839C
:102E80008983EDE4F0E089819A81892F99278083F5
:102E9000ECE4F0E0898180830F900F90CF91DF9177
:102EA0000895DF93CF9300D0CDB7DEB7ECE4F0E028
:102EB000808191819A83898389819A810F900F9073
:102EC000CF91DF910895DF93CF93CDB7DEB7EEE4D6
:102ED000F0E081E08083CF91DF910895DF93CF937D
:102EE000CDB7DEB7EEE4F0E01082CF91DF91089528
:102EF000AF92CF92DF92EF92FF920F931F93DF93E7
:102F0000CF9300D0CDB7DEB79A83898388E060E0A5
:102F100070E043E020E030E00AEF10E0EE24FF2410
:102F2000CC24DD24AA240E94951619C0E8E5F0E01F
:102F30008081882F90E0807190700097B9F3A8E5A8
:102F4000B0E0E8E5F0E0808180618C93ECE4F0E0B3
:102F50001182108289819A8101979A83898389815C
:102F60009A81009719F70E946E170F900F90CF91DA
:102F7000DF911F910F91FF90EF90DF90CF90AF9076
:102F80000895AF92CF92DF92EF92FF920F931F932B
:102F9000DF93CF9300D000D0CDB7DEB769837A83BB
:102FA0008B839C8388E060E070E041E020E030E0CB
:102FB00000E110E0EE24FF24CC24DD24AA240E94AA
:102FC00095161EC0E8E5F0E08081882F90E08071C2
:102FD00090700097B9F3A8E5B0E0E8E5F0E08081F3
:102FE00082608C93E2E5F0E0108289819A81AB8166
:102FF000BC810197A109B10989839A83AB83BC8302
:1030000089819A81AB81BC810097A105B105D1F678
:103010000E946E170F900F900F900F90CF91DF913D
:103020001F910F91FF90EF90DF90CF90AF90089598
:10303000DF93CF9300D000D0CDB7DEB789836A830A
:10304000ECE4F0E011821082E9E5F0E01082EAE4BD
:10305000F0E08981282F30E0C901880F991F820F85
:10306000931F880F991F880F991F880F991F9183AD
:103070008083E8E4F0E08981282F30E0C901880FDF
:10308000991F820F931F880F991F880F991F880F10
:10309000991F918380838A81282F30E03C832B8382
:1030A0008B819C8183309105C9F12B813C81243037
:1030B00031055CF48B819C818130910589F02B81F5
:1030C0003C8122303105D9F055C08B819C81843000
:1030D000910599F12B813C8125303105E9F14AC0F8
:1030E000E6E4F0E083EC99E091838083EFE4F0E0A4
:1030F00082EA8083EEE4F0E089E180833BC0E6E48D
:10310000F0E083EC99E091838083EFE4F0E082EAE1
:103110008083EEE4F0E08AE180832CC0E6E4F0E016
:1031200083EC99E091838083EFE4F0E082EA80838E
:10313000EEE4F0E08BE180831DC0E6E4F0E083EC98
:1031400099E091838083EFE4F0E082EA8083EEE40B
:10315000F0E08CE180830EC0E6E4F0E083EC99E0DF
:1031600091838083EFE4F0E082EA8083EEE4F0E094
:103170008DE180830F900F900F900F90CF91DF9192
:103180000895DF93CF9300D000D0CDB7DEB7898309
:103190006A83ECE4F0E011821082E9E5F0E010824D
:1031A000EAE4F0E08981282F30E0C901880F991FF7
:1031B000820F931F880F991F880F991F880F991FDF
:1031C00091838083E8E4F0E08981282F30E0C90111
:1031D000880F991F820F931F880F991F880F991FBF
:1031E000880F991F918380838A81282F30E03C8348
:1031F0002B838B819C8183309105C9F12B813C818C
:10320000243031055CF48B819C818130910589F0FB
:103210002B813C8122303105D9F055C08B819C81B6
:103220008430910599F12B813C8125303105E9F1FC
:103230004AC0E6E4F0E083EC99E091838083EFE418
:10324000F0E082EA8083EEE4F0E081E180833BC03D
:10325000E6E4F0E083EC99E091838083EFE4F0E032
:1032600082EA8083EEE4F0E082E180832CC0E6E431
:10327000F0E083EC99E091838083EFE4F0E082EA70
:103280008083EEE4F0E083E180831DC0E6E4F0E0BB
:1032900083EC99E091838083EFE4F0E082EA80831D
:1032A000EEE4F0E084E180830EC0E6E4F0E083EC3D
:1032B00099E091838083EFE4F0E082EA8083EEE49A
:1032C000F0E085E180830F900F900F900F90CF91E9
:1032D000DF910895991B79E004C0991F961708F0B3
:1032E000961B881F7A95C9F78095089597FB092E3C
:1032F00007260AD077FD04D00CD006D000201AF49F
:10330000709561957F4F0895F6F7909581959F4F41
:103310000895AA1BBB1B51E107C0AA1FBB1FA6171C
:10332000B70710F0A61BB70B881F991F5A95A9F76E
:1033300080959095BC01CD0108952F923F924F92B8
:103340005F926F927F928F929F92AF92BF92CF9235
:10335000DF92EF92FF920F931F93CF93DF93CDB73E
:10336000DEB7CA1BDB0B0FB6F894DEBF0FBECDBFB6
:1033700009942A88398848885F846E847D848C8487
:103380009B84AA84B984C884DF80EE80FD800C8190
:103390001B81AA81B981CE0FD11D0FB6F894DEBF73
:0C33A0000FBECDBFED010895F894FFCFE3
:1033AC000000000000000000000102020303030300
:1033BC0004040404040404040505050505050505B9
:1033CC000505050505050505060606060606060699
:1033DC000606060606060606060606060606060681
:1033EC000606060606060606070707070707070769
:1033FC000707070707070707070707070707070751
:10340C000707070707070707070707070707070740
:10341C000707070707070707070707070707070730
:10342C000707070707070707080808080808080818
:10343C000808080808080808080808080808080800
:10344C0008080808080808080808080808080808F0
:10345C0008080808080808080808080808080808E0
:10346C0008080808080808080808080808080808D0
:10347C0008080808080808080808080808080808C0
:10348C0008080808080808080808080808080808B0
:10349C0008080808080808080808080808080808A0
:0834AC000808080808080808D8
:00000001FF
