:100000000C942A000C9447000C9447000C94470071
:100010000C9447000C9447000C9447000C94470044
:100020000C9447000C9447000C9447000C94470034
:100030000C9447000C94AC090C9447000C94DF0915
:100040000C9447000C9447000C9447000C94470014
:100050000C94470011241FBECFE5D4E0DEBFCDBF16
:1000600011E0A8E6B1E001C01D92A537B107E1F7A4
:1000700011E0A0E6B0E0EAECF8E302C005900D92D2
:10008000A836B107D9F70E9401140C94631C0C9494
:100090000000EF92FF920F931F937B018C0120E0F1
:1000A00030E040E05FE40E94190388238CF0C8012F
:1000B000B70120E030E040E05FE40E94C1010E940F
:1000C000A7039B01AC01205030404040504806C07F
:1000D000C801B7010E94A7039B01AC01B901CA0185
:1000E0001F910F91FF90EF900895A0E0B0E0EBE733
:1000F000F0E00C942C1CDC012B01FA019C91923055
:1001000008F439C1EB018881823008F433C194309E
:1001100069F4843009F02FC111969C91119789815F
:10012000981709F428C1A0E6B0E025C1843009F48D
:1001300021C18230A9F4923009F01DC19A01AD01AC
:1001400088E0EA010990AE01E90109929E0181501F
:10015000C1F7E201898111969C918923818308C1AD
:10016000923009F407C112962D903C901397EB0141
:100170008A819B811496AD90BD90CD90DC901797AD
:10018000EC80FD800E811F819101281B390BB90184
:1001900037FF04C066277727621B730B6032710537
:1001A0000CF061C0121613066CF537014801062EDB
:1001B00004C096948794779467940A94D2F721E0C8
:1001C00030E040E050E004C0220F331F441F551FB1
:1001D0006A95D2F721503040404050402E213F21B7
:1001E00040235123211531054105510521F021E01E
:1001F00030E040E050E079018A01E628F72808293C
:1002000019293CC0232BD1F1260E371E350146019A
:10021000062E04C096948794779467940A94D2F734
:1002200021E030E040E050E004C0220F331F441FC3
:10023000551F6A95D2F721503040404050402A2146
:100240003B214C215D21211531054105510521F04E
:1002500021E030E040E050E059016A01A628B728CB
:10026000C828D9280BC0821593052CF01C01AA249C
:10027000BB24650103C0EE24FF24870111969C91E5
:10028000D20111968C91981709F445C0992339F041
:10029000A80197012A193B094C095D0906C0A6016E
:1002A00095012E193F09400B510B57FD08C01182D3
:1002B0003382228224833583468357831DC081E0A5
:1002C00081833382228288279927DC01821B930B4A
:1002D000A40BB50B84839583A683B7830DC0220F2F
:1002E000331F441F551F24833583468357838281E0
:1002F000938101979383828324813581468157813D
:10030000DA01C9010197A109B1098F5F9F4FAF4F72
:10031000BF4328F30BC0918333822282EA0CFB1C7B
:100320000C1D1D1DE482F5820683178383E0808304
:10033000248135814681578157FF1AC0C901AA27F8
:1003400097FDA095BA2F81709070A070B0705695EF
:10035000479537952795822B932BA42BB52B848318
:100360009583A683B7838281938101969383828349
:10037000DF0101C0D201CD01CDB7DEB7E2E10C94BF
:10038000481CA0E2B0E0E7ECF1E00C94381C698373
:100390007A838B839C832D833E834F835887E9E048
:1003A000EE2EF12CEC0EFD1ECE010196B7010E943F
:1003B0001F058E010F5E1F4FCE010596B8010E94EA
:1003C0001F058A8991E089278A8BC701B801AE0190
:1003D000475E5F4F0E9475000E944A04A096E6E0C7
:1003E0000C94541CA0E2B0E0E8EFF1E00C94381C4F
:1003F00069837A838B839C832D833E834F835887C5
:10040000F9E0EF2EF12CEC0EFD1ECE010196B701A6
:100410000E941F058E010F5E1F4FCE010596B80189
:100420000E941F05C701B801AE01475E5F4F0E94E1
:1004300075000E944A04A096E6E00C94541CA0E2C9
:10044000B0E0E5E2F2E00C942C1C69837A838B83A4
:100450009C832D833E834F835887CE010196BE0136
:10046000675F7F4F0E941F05CE010596BE016F5E3C
:100470007F4F0E941F059985923088F089898230CC
:10048000C8F0943019F4823051F404C0843029F457
:10049000923081F480E690E0C6C0923049F420E0CA
:1004A0009A858A89981321E02A87CE010996BBC0D4
:1004B000823049F420E09A858A89981321E02A8BBA
:1004C000CE014196B0C02D843E844F8458886D88FB
:1004D0007E888F88988CEE24FF248701AA24BB2471
:1004E000650140E050E060E070E0E0E0F0E0C10174
:1004F00081709070892BE9F0E60CF71C081D191D1E
:100500009A01AB012A0D3B1D4C1D5D1D80E090E062
:10051000A0E0B0E0E614F7040805190520F481E036
:1005200090E0A0E0B0E0BA01A901480F591F6A1F8E
:100530007B1FAA0CBB1CCC1CDD1C97FE08C081E0F5
:1005400090E0A0E0B0E0A82AB92ACA2ADB2A3196B6
:10055000E032F10549F0660C771C881C991C569412
:10056000479437942794C3CFFA85EA892B893C892D
:100570008B859C85280F391F2E5F3F4F17C0CA01FE
:1005800081709070892B61F016950795F794E79428
:1005900080E090E0A0E0B0E8E82AF92A0A2B1B2BC3
:1005A00076956795579547952F5F3F4F77FDE7CF36
:1005B0000CC0440F551F661F771F17FD4160EE0CDE
:1005C000FF1C001F111F21503040403090E05907A0
:1005D00090E0690790E4790760F32B8F3C8FDB0193
:1005E000CA018F779070A070B07080349105A1051A
:1005F000B10561F447FD0AC0E114F10401051105DC
:1006000029F0405C5F4F6F4F7F4F40781A8EFE1786
:1006100011F081E08A8F4D8F5E8F6F8F78A383E01A
:10062000898FCE0149960E944A04A096E2E10C947B
:10063000481CA8E1B0E0EFE1F3E00C94381C6983BA
:100640007A838B839C832D833E834F83588789E0F5
:10065000E82EF12CEC0EFD1ECE010196B7010E9492
:100660001F058E010F5E1F4FCE010596B8010E9437
:100670001F058985823040F08989823028F0C701C2
:10068000B8010E94970501C08FEF6896E6E00C94D0
:10069000541CA8E0B0E0EFE4F3E00C94351C9B019F
:1006A000AC0183E08983DA01C9018827B7FD83950E
:1006B0009927AA27BB27B82E2115310541055105D9
:1006C00019F482E089833AC08823A9F0203080E0C1
:1006D000380780E0480780E8580729F460E070E0B8
:1006E00080E09FEC30C0EE24FF248701E21AF30A79
:1006F000040B150B02C079018A018EE1C82ED12CA2
:10070000DC82CB82ED82FE820F831887C801B7019D
:100710000E94FB0301971816190684F4082E04C0E2
:10072000EE0CFF1C001F111F0A94D2F7ED82FE820F
:100730000F831887C81AD90ADC82CB82BA82CE010D
:1007400001960E944A042896E9E00C94511CACE002
:10075000B0E0EDEAF3E00C943C1C69837A838B8370
:100760009C83CE010196BE016B5F7F4F0E941F05E7
:100770008D81823061F1823050F1843021F48E819C
:10078000882351F12EC02F81388537FD20C06E811E
:100790002F3131051CF06623F9F023C08EE190E083
:1007A000821B930B29853A854B855C8504C0569541
:1007B0004795379527958A95D2F76623B1F05095DE
:1007C0004095309521953F4F4F4F5F4F0EC020E031
:1007D00030E040E050E009C02FEF3FEF4FEF5FE720
:1007E00004C020E030E040E050E8B901CA012C9696
:1007F000E2E00C94581CEF92FF920F931F937B0141
:100800008C0180E0E81680E0F80681E0080780E0CF
:10081000180788F48FEFE816F1040105110531F08F
:1008200028F088E090E0A0E0B0E017C080E090E021
:10083000A0E0B0E012C080E0E81680E0F80680E0BA
:10084000080781E0180728F088E190E0A0E0B0E018
:1008500004C080E190E0A0E0B0E020E230E040E0C1
:1008600050E0281B390B4A0B5B0B04C0169507950B
:10087000F794E7948A95D2F7F701E859FF4F808102
:10088000281B310941095109C9011F910F91FF909E
:10089000EF900895DF92EF92FF920F931F93FC0168
:1008A000E480F58006811781D1808081823048F410
:1008B00080E090E0A0E1B0E0E82AF92A0A2B1B2BA7
:1008C000A5C0843009F49FC0823021F4EE24FF24B7
:1008D000870105C0E114F1040105110519F4E0E0F8
:1008E000F0E096C0628173819FEF623879070CF067
:1008F0005BC022E83FEF261B370B2A3131052CF075
:1009000020E030E040E050E02AC0B801A701022E0C
:1009100004C076956795579547950A94D2F781E07C
:1009200090E0A0E0B0E004C0880F991FAA1FBB1F91
:100930002A95D2F70197A109B1098E219F21A02301
:10094000B1230097A105B10521F081E090E0A0E07E
:10095000B0E09A01AB01282B392B4A2B5B2BDA0133
:10096000C9018F779070A070B07080349105A10597
:10097000B10539F427FF09C0205C3F4F4F4F5F4F4F
:1009800004C0215C3F4F4F4F5F4FE0E0F0E020306C
:10099000A0E03A07A0E04A07A0E45A0710F0E1E01F
:1009A000F0E079018A0127C06038710564F5FB0128
:1009B000E158FF4FD801C7018F779070A070B070D9
:1009C00080349105A105B10539F4E7FE0DC080E43E
:1009D00090E0A0E0B0E004C08FE390E0A0E0B0E0E1
:1009E000E80EF91E0A1F1B1F17FF05C01695079575
:1009F000F794E794319687E016950795F794E79476
:100A00008A95D1F705C0EE24FF248701EFEFF0E0CF
:100A10006E2F679566276795902F9F77D794DD2473
:100A2000D7948E2F8695492F462B582F5D29B701D5
:100A3000CA011F910F91FF90EF90DF900895FC0184
:100A4000DB01408151812281622F6F7770E0221F8C
:100A50002227221F9381892F880F822B282F30E095
:100A6000991F9927991F11969C931197211531056C
:100A7000A9F5411551056105710511F482E037C0F2
:100A800082E89FEF13969C938E9312979A01AB0185
:100A900067E0220F331F441F551F6A95D1F783E08B
:100AA0008C930DC0220F331F441F551F12968D913A
:100AB0009C911397019713969C938E9312972030D5
:100AC00080E0380780E0480780E4580758F3149620
:100AD0002D933D934D935C93179708952F3F3105C8
:100AE00079F4411551056105710519F484E08C9381
:100AF000089564FF03C081E08C9312C01C9210C063
:100B00002F57304013963C932E93129783E08C938B
:100B100087E0440F551F661F771F8A95D1F77064D1
:100B200014964D935D936D937C93179708951F933F
:100B3000DC01FB019C91923008F447C08081823037
:100B400008F443C0943051F411961C91843099F507
:100B50008181682F70E0611B71093FC0843021F0F2
:100B6000923031F48230B9F18181882389F12DC02E
:100B700011961C9111978230F1F081811817D9F4E8
:100B800012962D913C91139782819381821793073E
:100B900094F028173907BCF014968D919D910D9013
:100BA000BC91A02D248135814681578128173907B2
:100BB0004A075B0718F4112341F00AC08217930714
:100BC000A407B50740F4112319F061E070E005C0F7
:100BD0006FEF7FEF02C060E070E0CB011F910895DE
:100BE000DF93CF930F92CDB7DEB781E060EF40EF98
:100BF0000E940C100E94990D0E94AD0D0E94DB0D09
:100C000089830E94D20D9091700181E060EF492F9D
:100C10000E949910F1CFDF93CF9300D00F92CDB700
:100C2000DEB778941092710180E00E94FD0D81E0A2
:100C30000E94FD0D80E061E00E94560E81E061E0BF
:100C40000E94560E1B8212C0809171010E94F00E0C
:100C500064EF71E080E090E00E94D1158091710115
:100C6000865F809371018B818F5F8B838B818A304C
:100C700058F384E6809371011A8212C08091710149
:100C80000E94F00E64EF71E080E090E00E94D115C8
:100C9000809171018A50809371018A818F5F8A836C
:100CA0008A818A3058F380E060E00E94560E81E02D
:100CB00060E00E94560E64EF71E080E090E00E94D8
:100CC000D11580E580937101198211C080E061E047
:100CD0000E94560E809171010E94F00E68EE73E042
:100CE00080E090E00E94D11589818F5F898389819E
:100CF000882361F380E060E00E94560E0E94361760
:100D00000F900F900F90CF91DF910895DF93CF93C5
:100D100000D0CDB7DEB7789480E58093710180E094
:100D20000E94FD0D81E00E94FD0D80E061E00E94C7
:100D3000560E81E061E00E94560E81E060EF40EFC8
:100D40000E940C100E94990D0E94AD0D0E94C90DC9
:100D50000E94DB0D8A830E94D20D81E060EF4A8100
:100D60000E9499108A81833378F48A818F3160F0F0
:100D700080E061E00E94560E81E061E00E94560E24
:100D800082E30E94F00EE0CF8A818E3139F580E057
:100D900060E00E94560E81E060E00E94560E64EF13
:100DA00071E080E090E00E94D115198210C080E0CF
:100DB00061E00E94560E80E50E94F00E68EE73E03E
:100DC00080E090E00E94D11589818F5F89838981BD
:100DD000882369F380E580937101B6CF8A818E31D3
:100DE000D0F480E060E00E94560E81E060E00E9456
:100DF000560E64EF71E080E090E00E94D11582E32E
:100E00000E94F00E80E062E00E94560E81E062E0F7
:100E10000E94560E99CF80E061E00E94560E81E05C
:100E200061E00E94560E80E50E94F00E8DCFDF93A8
:100E3000CF9300D00F92CDB7DEB7789410927101A6
:100E400080E00E94FD0D81E00E94FD0D80E061E0E8
:100E50000E94560E81E061E00E94560E1B8212C075
:100E6000809171010E94E20E64EF71E080E090E0F9
:100E70000E94D11580917101865F809371018B81F1
:100E80008F5F8B838B818A3058F384E68093710166
:100E90001A8212C0809171010E94E20E64EF71E02B
:100EA00080E090E00E94D115809171018A5080937A
:100EB00071018A818F5F8A838A818A3058F380E04A
:100EC00060E00E94560E81E060E00E94560E64EFE2
:100ED00071E080E090E00E94D11580E5809371017F
:100EE000198211C080E061E00E94560E809171016C
:100EF0000E94E20E68EE73E080E090E00E94D1155F
:100F000089818F5F89838981882361F380E060E034
:100F10000E94560E0E9436170F900F900F90CF919F
:100F2000DF910895DF93CF9300D00F92CDB7DEB756
:100F300080E00E940B1581E00E940B151A821B8233
:100F400037C019822FC080E06B810E949E1580E01F
:100F50000E94501565E070E080E090E00E94D1159D
:100F600080E00E94771565E070E080E090E00E94EC
:100F7000D11581E06A810E949E1581E00E94501582
:100F800065E070E080E090E00E94D11581E00E9471
:100F9000771565E070E080E090E00E94D1158981CE
:100FA0008F5F89838981823370F28B818F5F8B831E
:100FB0008B818A3030F28A818F5F8A838A818A307E
:100FC00009F0BDCF1A82BBCFDF93CF9300D000D002
:100FD0000F92CDB7DEB71D8281E00E94DF1281E063
:100FE0000E940A1481E00E9458148823D9F381E0FA
:100FF0000E94361319821A821B821C8213C081E060
:101000000E945814882319F08D818F5F8D83898108
:101010009A81AB81BC810196A11DB11D89839A8300
:10102000AB83BC8389819A81AB81BC81803828E302
:10103000920721E0A20720E0B20708F38D818B30F0
:1010400030F068EE73E080E090E00E94D11581E01E
:101050000E94791368EE73E080E090E00E94D11561
:101060001D82C0CFDF93CF9300D000D00F92CDB7B9
:10107000DEB71D8281E00E94DF1281E00E940A1427
:1010800081E00E9458148823D9F381E00E9436132E
:1010900019821A821B821C8213C081E00E9458149C
:1010A000882319F08D818F5F8D8389819A81AB812F
:1010B000BC810196A11DB11D89839A83AB83BC833A
:1010C00089819A81AB81BC81803828E3920721E035
:1010D000A20720E0B20708F38D818B3020F088EE64
:1010E00093E00E94401781E00E94791388EE93E01C
:1010F0000E9440171D82C4CFDF93CF9300D00F9280
:10110000CDB7DEB781E00E94DF1282E00E94DF12DD
:1011100083E00E94DF1281E089838981282F30E0FB
:101120003B832A838A819B8182309105C9F02A8181
:101130003B812330310519F18A819B8181309105F2
:1011400061F781E00E94361368EE73E080E090E082
:101150000E94D11581E00E94791383E08983DDCF5D
:1011600082E00E94361368EE73E080E090E00E9417
:10117000D11582E00E94791381E08983CECF83E08C
:101180000E94361368EE73E080E090E00E94D11573
:1011900083E00E94791382E08983BFCFDF93CF93EE
:1011A00000D00F92CDB7DEB781E00E94DF1282E05F
:1011B0000E94DF1283E00E94DF1281E0898389812F
:1011C000282F30E03B832A838A819B8182309105DE
:1011D000B9F02A813B8123303105F9F08A819B8166
:1011E0008130910561F781E00E94361388EE93E02B
:1011F0000E94401781E00E94791383E08983DFCF4A
:1012000082E00E94361388EE93E00E94401782E04D
:101210000E94791381E08983D2CF83E00E94361344
:1012200088EE93E00E94401783E00E94791382E0E9
:101230008983C5CFDF93CF9300D00F92CDB7DEB7B0
:1012400081E00E94DF1282E00E94DF1283E00E94B0
:10125000DF1281E089838981282F30E03B832A8354
:101260008A819B8182309105B9F02A813B812330AC
:101270003105F9F08A819B818130910561F781E028
:101280000E94361388EE93E00E94071A81E00E94C4
:10129000791383E08983DFCF82E00E94361388EEE2
:1012A00093E00E94071A82E00E94791381E089830B
:1012B000D2CF83E00E94361388EE93E00E94071A93
:1012C00083E00E94791382E08983C5CFEF920F9368
:1012D000DF93CF93CDB7DEB7789481E00E94DF1221
:1012E00082E00E94DF1283E00E94DF1281E080939F
:1012F000730188E060E043E020E00AEFEE246894A8
:10130000E1F80E94BC16FFCFEF920F93DF93CF93CB
:10131000CDB7DEB783E00E94B7111092680181E07B
:101320000E94DF1282E00E94DF1283E00E94DF123F
:10133000809168018130E1F783E08093730188E058
:1013400060E043E020E00AEFEE246894E1F80E94B8
:10135000BC1610926801ECCF1F920F920FB60F923D
:1013600011242F933F934F935F936F937F938F93AA
:101370009F93AF93BF93EF93FF93DF93CF93CDB73B
:10138000DEB780916B0190916C01009729F0E0919C
:101390006B01F0916C010995CF91DF91FF91EF9175
:1013A000BF91AF919F918F917F916F915F914F917D
:1013B0003F912F910F900FBE0F901F9018951F9285
:1013C0000F920FB60F9211242F933F934F935F9379
:1013D0006F937F938F939F93AF93BF93EF93FF93FD
:1013E000DF93CF93CDB7DEB780916D0190916E0101
:1013F000009729F0E0916D01F0916E010995CF9170
:10140000DF91FF91EF91BF91AF919F918F917F916C
:101410006F915F914F913F912F910F900FBE0F9061
:101420001F901895DF93CF9300D000D0CDB7DEB7D3
:101430009A838983ADE2B0E0EDE2F0E080818064E0
:101440008C93E981FA818681803241F4ADE2B0E08B
:10145000EDE2F0E0808180628C930BC0E981FA813B
:101460008681882331F4EDE2F0E0ADE2B0E08C91CA
:101470008083E981FA818081803109F073C0ADE217
:10148000B0E0EDE2F0E0808180618C93E981FA8147
:101490008181282F30E03C832B838B819C8181309C
:1014A0009105E1F02B813C81223031052CF48B81B8
:1014B0009C81009761F029C02B813C81223031054D
:1014C000A9F08B819C8183309105C1F01EC0EDE2B3
:1014D000F0E0ADE2B0E08C91808317C0ADE2B0E007
:1014E000EDE2F0E0808181608C930FC0ADE2B0E06E
:1014F000EDE2F0E0808182608C9307C0ADE2B0E065
:10150000EDE2F0E0808183608C93E981FA81838150
:10151000813041F4AEE2B0E0EEE2F0E08081816043
:101520008C930BC0E981FA818381882331F4EEE248
:10153000F0E0AEE2B0E08C91808381E060E440E0D6
:101540000E940C1081E060E24FEF0E940C1081E0DD
:1015500060E84FEF0E940C1081E060E14FEF0E94C5
:101560000C101FC0E981FA8180818823D1F4EDE25B
:10157000F0E0ADE2B0E08C91808381E060E44FEF79
:101580000E940C1081E060E240E00E940C1081E0BB
:1015900060E840E00E940C1081E060E140E00E94C1
:1015A0000C10E981FA818481882339F4EDE2F0E0BE
:1015B000ADE2B0E08C9180830CC0E981FA81848136
:1015C000883039F4ADE2B0E0EDE2F0E0808188608F
:1015D0008C93E981FA818281803441F4ADE2B0E0FC
:1015E000EDE2F0E0808180648C930BC0E981FA81A8
:1015F0008281882331F4EDE2F0E0ADE2B0E08C913D
:101600008083E981FA818781882339F4EDE2F0E073
:10161000ADE2B0E08C9180830CC0E981FA818781D2
:10162000843039F4ADE2B0E0EDE2F0E08081846036
:101630008C930F900F900F900F90CF91DF910895A2
:10164000DF93CF930F92CDB7DEB7898381E060E15E
:101650004FEF0E949910EFE2F0E089818083EEE283
:10166000F0E080818823DCF7AEE2B0E0EEE2F0E06B
:10167000808180688C93EFE2F0E080810F90CF91C1
:10168000DF910895EF920F93DF93CF930F92CDB731
:10169000DEB7898389810E94B71180E060E043E072
:1016A00020E000E0EE240E94BC160F90CF91DF9165
:1016B0000F91EF900895DF93CF930F92CDB7DEB7E0
:1016C00089830F90CF91DF910895DF93CF9300D05E
:1016D000CDB7DEB79A83898380917201E981FA815F
:1016E00080830F900F90CF91DF910895EF920F9329
:1016F000DF93CF93CDB7DEB780E060E043E020E03A
:1017000000E0EE240E94BC16CF91DF910F91EF9084
:101710000895DF93CF93CDB7DEB70E943617CF91F0
:10172000DF910895DF93CF93CDB7DEB7CF91DF91EF
:101730000895DF93CF93CDB7DEB7E2E5F0E01082F6
:101740000E9436170E940312CF91DF910895DF9314
:10175000CF9300D000D0CDB7DEB79C838B83ABE2B4
:10176000B0E0EB81FC819485EB81FC818585892B40
:101770008C93AAE2B0E0EB81FC819581EB81FC8146
:101780008681982BEB81FC818781982BEB81FC81F2
:101790008085982BEB81FC818185982BEB81FC81E6
:1017A0008285982BEB81FC818385892B8C93EB813F
:1017B000FC819081EB81FC818181982BEB81FC8104
:1017C0008281982BEB81FC818381982BEB81FC81BA
:1017D0008481892B80688A83E0E4F0E08A818083B9
:1017E000A0E4B0E0EB81FC8186859785892F99275D
:1017F0008C93A9E2B0E0EB81FC81868597858C9380
:101800000F900F900F900F90CF91DF910895DF937D
:10181000CF930F92CDB7DEB78983EBE2F0E0808102
:10182000882F90E0807290700097B9F3ECE2F0E0BE
:10183000898180830F90CF91DF910895DF93CF93BB
:10184000CDB7DEB7EBE2F0E080818823DCF7ECE295
:10185000F0E08081CF91DF910895DF93CF9300D0A6
:101860000F92CDB7DEB79B838A8319820EC0898120
:10187000282F30E08A819B81FC01E20FF31F8081D9
:101880000E94070C89818F5F89838981282F30E02E
:101890008A819B81FC01E20FF31F8081882339F745
:1018A0000F900F900F90CF91DF9108950F931F939A
:1018B000DF93CF9300D00F92CDB7DEB79B838A839F
:1018C00019828981282F30E08A819B818C01020F47
:1018D000131F0E941E0CF80180830FC089818F5F47
:1018E00089838981282F30E08A819B818C01020FB6
:1018F000131F0E941E0CF80180838981282F30E07D
:101900008A819B81FC01E20FF31F8081833231F7D2
:101910008981282F30E08A819B81FC01E20FF31F2F
:1019200010820F900F900F90CF91DF911F910F9128
:101930000895DF93CF93CDB7DEB7ECE2F0E080916E
:101940006A018083CF91DF910895DF93CF93CDB764
:10195000DEB761970FB6F894DEBF0FBECDBF81E052
:101960006FEF0E94FE0E81E060E00E943F0F19823F
:1019700086E08E831D8282E08E871B821C8280E13E
:101980008A8788E08B878FEC90E0998B888BCE01DB
:1019900002960E94A70B0E941E0C89838981982FB2
:1019A0009295907F81E0692F0E943F0F64EF71E074
:1019B00080E090E00E94D115EECFDF93CF93CDB7BA
:1019C000DEB761970FB6F894DEBF0FBECDBF81E0E2
:1019D0006FEF0E94FE0E81E060E00E943F0F1982CF
:1019E00086E08E831D8282E08E871B821C8280E1CE
:1019F0008A8788E08B878FEC90E0998B888BCE016B
:101A000002960E94A70B0E941E0C89838981982F41
:101A10009295907F81E0692F0E943F0F64EF71E003
:101A200080E090E00E94D115EECFDF93CF93CDB749
:101A3000DEB761970FB6F894DEBF0FBECDBF198237
:101A400086E08E831D8282E08E871B821C8280E16D
:101A50008A8788E08B878FEC90E0998B888BCE010A
:101A600002960E94A70B68EB7BE080E090E00E946A
:101A7000D11589810E94070C89818F5F89838981B3
:101A80008F3009F4198264EF71E080E090E00E94E9
:101A9000D115EFCFDF93CF93CDB7DEB760970FB6F9
:101AA000F894DEBF0FBECDBF89E99CE00E94870D90
:101AB00086E08D831C8282E08D871A821B8280E102
:101AC000898788E08A878FEC90E0988B8F87CE019A
:101AD00001960E94A70B68EB7BE080E090E00E94FB
:101AE000D11580916A010E94070C80916A018F5F75
:101AF00080936A0180916A018F3011F410926A011B
:101B000064EF71E080E090E00E94D115EACFDF93AE
:101B1000CF9300D0CDB7DEB79A83898389819A812C
:101B200090936C0180936B010F900F90CF91DF9198
:101B30000895DF93CF93CDB7DEB780E061E04FEF3C
:101B40000E940C1080E061E041E00E94991083E067
:101B50000E94420BCF91DF910895DF93CF93CDB7D1
:101B6000DEB70E94031280E061E041E00E9499101C
:101B700061E070E080E090E00E94D11580E061E0DB
:101B800040E00E94991083E00E94B711CF91DF914D
:101B90000895DF93CF93CDB7DEB70E94760BCF9138
:101BA000DF910895DF93CF93CDB7DEB70E94990BF5
:101BB000CF91DF910895DF93CF9300D0CDB7DEB7FB
:101BC000809168018823E1F310926801CE010296AA
:101BD0000E94650B8A819FE0692F0E94F91B89830F
:101BE00089810F900F90CF91DF910895DF93CF936C
:101BF000CDB7DEB7CF91DF910895DF93CF9300D0BB
:101C00000F92CDB7DEB789838981282F30E03B83DF
:101C10002A838A819B81009731F02A813B81213080
:101C2000310501F13DC083E060E14FEF0E940C10EF
:101C300083E060E140E00E94991083E064E04FEFB0
:101C40000E940C1083E064E040E00E94991083E061
:101C500068E04FEF0E940C1083E068E040E00E94D3
:101C600099101EC083E060E24FEF0E940C1083E0E9
:101C700060E240E00E94991083E060E44FEF0E9430
:101C80000C1083E060E440E00E94991083E060E87B
:101C90004FEF0E940C1083E060E840E00E94991032
:101CA0000F900F900F90CF91DF910895DF93CF9316
:101CB000CDB7DEB728970FB6F894DEBF0FBECDBF05
:101CC00089836A838981282F30E038872F838F8129
:101CD0009885009731F02F81388521303105B1F199
:101CE00068C08A81282F30E03E832D838D819E81BC
:101CF00081309105A9F02D813E8122303105D9F046
:101D00008D819E81009709F054C083E064E040E03B
:101D10000E94991083E068E040E00E94991049C059
:101D200083E064E040E00E94991083E068E048E0CE
:101D30000E9499103EC083E064E044E00E94991044
:101D400083E068E040E00E94991033C08A81282F28
:101D500030E03C832B838B819C8181309105A1F005
:101D60002B813C8122303105D1F08B819C81009701
:101D700001F583E060E440E00E94991083E060E8B0
:101D800040E00E94991015C083E060E440E00E94AA
:101D9000991083E060E840E80E9499100AC083E04F
:101DA00060E440E40E94991083E060E840E00E9413
:101DB000991028960FB6F894DEBF0FBECDBFCF9115
:101DC000DF910895DF93CF930F92CDB7DEB789836C
:101DD000898165E00E9496180F90CF91DF91089558
:101DE000DF93CF930F92CDB7DEB78983898162E00D
:101DF0000E94501B0F90CF91DF910895DF93CF93F6
:101E000000D000D0CDB7DEB789836A838981282FBF
:101E100030E03C832B838B819C8181309105D1F014
:101E20002B813C81223031052CF48B819C810097E1
:101E300061F01EC02B813C812230310581F08B8105
:101E40009C818330910581F013C0EAE3F0E08A8140
:101E500080830EC0E7E3F0E08A81808309C0E4E379
:101E6000F0E08A81808304C0E1E3F0E08A8180832E
:101E70000F900F900F900F90CF91DF910895DF9307
:101E8000CF9300D000D0CDB7DEB789836A83898134
:101E9000282F30E03C832B838B819C8181309105FE
:101EA000D1F02B813C81223031052CF48B819C8137
:101EB000009761F01EC02B813C812230310581F0FA
:101EC0008B819C818330910581F013C0EBE3F0E0BE
:101ED0008A8180830EC0E8E3F0E08A81808309C0B4
:101EE000E5E3F0E08A81808304C0E2E3F0E08A81E8
:101EF00080830F900F900F900F90CF91DF910895F6
:101F0000DF93CF9300D00F92CDB7DEB7898389815D
:101F1000282F30E03B832A838A819B818130910581
:101F2000E9F02A813B81223031052CF48A819B81A2
:101F3000009761F02AC02A813B8122303105B1F03F
:101F40008A819B8183309105C9F01FC0ABE3B0E06B
:101F5000EBE3F0E0808180958C9317C0A8E3B0E0BC
:101F6000E8E3F0E0808180958C930FC0A5E3B0E0BA
:101F7000E5E3F0E0808180958C9307C0A2E3B0E0B8
:101F8000E2E3F0E0808180958C930F900F900F90AA
:101F9000CF91DF910895DF93CF9300D000D0CDB7DC
:101FA000DEB78A838A81282F30E03C832B838B81A4
:101FB0009C8181309105D1F02B813C81223031050B
:101FC0002CF48B819C81009761F01EC02B813C8199
:101FD0002230310581F08B819C818330910581F025
:101FE00013C0E9E3F0E0808189830EC0E6E3F0E00E
:101FF0008081898309C0E3E3F0E08081898304C0A4
:10200000E0E3F0E08081898389810F900F900F9049
:102010000F90CF91DF910895DF93CF9300D000D040
:102020000F92CDB7DEB789836A834B838981282FCE
:1020300030E03D832C838C819D818130910569F155
:102040002C813D81223031052CF48C819D810097BB
:1020500069F067C02C813D8122303105A9F18C8166
:102060009D818330910509F446C05BC08B81882334
:1020700059F4AAE3B0E0EAE3F0E08081982F8A8186
:10208000809589238C934DC0AAE3B0E0EAE3F0E0A9
:1020900090818A81892B8C9344C08B81882359F449
:1020A000A7E3B0E0E7E3F0E08081982F8A81809594
:1020B00089238C9336C0A7E3B0E0E7E3F0E090819A
:1020C0008A81892B8C932DC08B81882359F4A4E3BA
:1020D000B0E0E4E3F0E08081982F8A818095892345
:1020E0008C931FC0A4E3B0E0E4E3F0E090818A8128
:1020F000892B8C9316C08B81882359F4A1E3B0E01F
:10210000E1E3F0E08081982F8A81809589238C9388
:1021100008C0A1E3B0E0E1E3F0E090818A81892B7F
:102120008C930F900F900F900F900F90CF91DF91A5
:102130000895DF93CF9300D000D00F92CDB7DEB7D4
:1021400089836A834B838981282F30E03D832C83E8
:102150008C819D818130910541F12C813D8122301E
:1021600031052CF48C819D81009761F056C02C8143
:102170003D812230310561F18C819D818330910553
:10218000D1F14BC0ABE3B0E0EBE3F0E08081982FFE
:102190008A81809589238C93ABE3B0E0EBE3F0E098
:1021A00090818B81892B8C9338C0A8E3B0E0E8E361
:1021B000F0E08081982F8A81809589238C93A8E311
:1021C000B0E0E8E3F0E090818B81892B8C9325C00F
:1021D000A5E3B0E0E5E3F0E08081982F8A81809567
:1021E00089238C93A5E3B0E0E5E3F0E090818B8157
:1021F000892B8C9312C0A2E3B0E0E2E3F0E080818F
:10220000982F8A81809589238C93A2E3B0E0E2E342
:10221000F0E090818B81892B8C930F900F900F9021
:102220000F900F90CF91DF910895DF93CF9300D05F
:1022300000D0CDB7DEB789836A838981282F30E04B
:102240003C832B838B819C8181309105F1F02B8124
:102250003C81223031052CF48B819C81009761F008
:102260002EC02B813C8122303105C1F08B819C81B5
:1022700083309105E1F023C0ABE3B0E0EBE3F0E0A5
:1022800090818A8189278C931AC0A8E3B0E0E8E3A3
:10229000F0E090818A8189278C9311C0A5E3B0E09A
:1022A000E5E3F0E090818A8189278C9308C0A2E35E
:1022B000B0E0E2E3F0E090818A8189278C930F906F
:1022C0000F900F900F90CF91DF910895DF93CF93F0
:1022D00000D000D00F92CDB7DEB78A836B838A819E
:1022E000282F30E03D832C838C819D8181309105A6
:1022F000E1F02C813D81223031052CF48C819D81CF
:10230000009761F026C02C813D8122303105A1F07B
:102310008C819D8183309105B1F01BC0E9E3F0E031
:1023200090818B818923898314C0E6E3F0E090815A
:102330008B81892389830DC0E3E3F0E090818B8159
:102340008923898306C0E0E3F0E090818B818923B3
:1023500089838981882311F08FEF898389810F9088
:102360000F900F900F900F90CF91DF910895DF9312
:10237000CF9300D00F92CDB7DEB78983F894ABE549
:10238000B0E0EBE5F0E0808180648C9383E064E072
:1023900040E00E940C108981282F30E03B832A8383
:1023A0008A819B818130910581F02A813B81223095
:1023B000310514F18A819B818230910571F02A8167
:1023C0003B812330310589F017C0A5E5B0E0E5E594
:1023D000F0E0808184608C930FC0A5E5B0E0E5E576
:1023E000F0E0808181608C9307C0A5E5B0E0E5E571
:1023F000F0E0808183608C9378940F900F900F9021
:10240000CF91DF910895DF93CF93CDB7DEB7F894E6
:10241000ABE5B0E0EBE5F0E080818F7B8C93A5E548
:10242000B0E0E5E5F0E080818C7F8C93CF91DF9187
:102430000895DF93CF9300D00F92CDB7DEB7898395
:10244000F894ABE5B0E0EBE5F0E0808180688C9338
:1024500083E068E040E00E940C108981282F30E082
:102460003B832A838A819B818130910581F02A8177
:102470003B812230310514F18A819B8182309105A4
:1024800071F02A813B812330310589F017C0A5E521
:10249000B0E0E5E5F0E0808184608C930FC0A5E5B5
:1024A000B0E0E5E5F0E0808181608C9307C0A5E5B0
:1024B000B0E0E5E5F0E0808183608C9378940F9044
:1024C0000F900F90CF91DF910895DF93CF93CDB709
:1024D000DEB7F894ABE5B0E0EBE5F0E080818F7714
:1024E0008C93A5E5B0E0E5E5F0E080818C7F8C93EE
:1024F0007894CF91DF910895DF93CF9300D00F921E
:10250000CDB7DEB78983F894ABE5B0E0EBE5F0E05A
:10251000808180628C9381E064E040E00E940C1036
:102520008981282F30E03B832A838A819B818130F7
:10253000910581F02A813B812230310514F18A8195
:102540009B818230910571F02A813B8123303105D6
:1025500089F017C0A5E5B0E0E5E5F0E08081846092
:102560008C930FC0A5E5B0E0E5E5F0E080818160E7
:102570008C9307C0A5E5B0E0E5E5F0E080818360DD
:102580008C9378940F900F900F90CF91DF910895D6
:10259000DF93CF93CDB7DEB7F894ABE5B0E0EBE5D2
:1025A000F0E080818F7D8C93A5E5B0E0E5E5F0E07B
:1025B00080818C7F8C937894CF91DF910895DF9305
:1025C000CF9300D00F92CDB7DEB789838981282FB2
:1025D00030E03B832A838A819B818130910501F120
:1025E0002A813B81223031052CF48A819B8100971E
:1025F00061F036C02A813B8122303105E1F08A81C9
:102600009B818330910511F12BC081E060E14FEF98
:102610000E940C1081E060E140E00E94991020C00F
:1026200081E060E24FEF0E940C1081E060E240E048
:102630000E94991015C081E060E44FEF0E940C10D9
:1026400081E060E440E00E9499100AC081E060E807
:102650004FEF0E940C1081E060E840E00E9499106A
:102660000F900F900F90CF91DF910895DF93CF934C
:1026700000D00F92CDB7DEB789838981282F30E053
:102680003B832A838A819B8181309105D9F02A81FD
:102690003B81223031052CF48A819B81009761F0C7
:1026A00022C02A813B812230310591F08A819B81B1
:1026B0008330910599F017C081E060E140E10E940C
:1026C000991011C081E060E240E20E9499100BC0B5
:1026D00081E060E440E40E94991005C081E060E878
:1026E00040E80E9499100F900F900F90CF91DF91CA
:1026F0000895DF93CF9300D00F92CDB7DEB78983D3
:102700008981282F30E03B832A838A819B81813015
:102710009105D9F02A813B81223031052CF48A8140
:102720009B81009761F022C02A813B8122303105D4
:1027300091F08A819B818330910599F017C081E0E7
:1027400060E140E00E94991011C081E060E240E049
:102750000E9499100BC081E060E440E00E94991053
:1027600005C081E060E840E00E9499100F900F9052
:102770000F90CF91DF910895DF93CF9300D00F9208
:10278000CDB7DEB78983E8E3F0E0808169810E94FC
:1027900015118981282F30E03B832A838A819B8110
:1027A00081309105D1F02A813B81223031052CF412
:1027B0008A819B81009761F01EC02A813B81223073
:1027C000310581F08A819B818330910581F013C0AE
:1027D00081E060E10E9415110EC081E060E20E947C
:1027E000151109C081E060E40E94151104C081E068
:1027F00060E80E9415110F900F900F90CF91DF911C
:102800000895DF93CF93CDB7DEB780E090E0CF910E
:10281000DF910895DF93CF9300D00F92CDB7DEB74D
:1028200089838981282F30E03B832A838A819B8199
:102830008230910531F12A813B812330310554F4F6
:102840008A819B81009789F02A813B812130310563
:1028500091F028C08A819B8183309105C1F02A8143
:102860003B8124303105C9F01DC082E060E140E0C9
:102870000E940C1017C081E064E040E00E940C1040
:1028800011C080E064E040E00E940C100BC080E0CA
:1028900068E040E00E940C1005C083E064E040E086
:1028A0000E940C100F900F900F90CF91DF91089520
:1028B000DF93CF9300D000D0CDB7DEB78A831982E3
:1028C0008A81282F30E03C832B838B819C8182304E
:1028D000910509F450C02B813C812330310554F41B
:1028E0008B819C81009799F02B813C8121303105AF
:1028F00041F189C08B819C818330910509F454C0DA
:102900002B813C812430310509F466C07CC082E013
:1029100060E10E946611882309F475C06EE170E0E1
:1029200080E090E00E94D11582E060E10E94661193
:10293000882309F468C082E060E10E9466118983FF
:1029400062C081E064E00E946611882309F45BC0E4
:102950006EE170E080E090E00E94D11581E064E0DB
:102960000E946611882309F44EC081E064E00E9451
:102970006611898348C080E064E00E946611882364
:1029800009F441C06EE170E080E090E00E94D11552
:1029900080E064E00E9466118823A9F180E064E091
:1029A0000E94661189832FC080E068E00E94661152
:1029B000882349F16EE170E080E090E00E94D1153B
:1029C00080E068E00E9466118823E9F080E068E01A
:1029D0000E946611898317C083E064E00E9466113B
:1029E000882389F06EE170E080E090E00E94D115CC
:1029F00083E064E00E946611882329F083E064E0AC
:102A00000E946611898389810F900F900F900F901B
:102A1000CF91DF910895DF93CF9300D00F92CDB780
:102A2000DEB789838981282F30E03B832A838A811E
:102A30009B81009731F02A813B8121303105B1F033
:102A400029C081E06FE04FEF0E940C1081E06FE041
:102A50004FE00E94991083E064E04FEF0E940C1059
:102A600083E064E044E00E94991014C081E06FE0CC
:102A70004FEF0E940C1081E06FE04FE00E94991030
:102A800083E068E04FEF0E940C1083E068E048E0CC
:102A90000E9499100F900F900F90CF91DF910895A1
:102AA000DF93CF9300D00F92CDB7DEB789838981B2
:102AB000282F30E03B832A838A819B81009731F065
:102AC0002A813B812130310539F00BC083E064E07D
:102AD00044E00E94991005C083E068E048E00E944D
:102AE00099100F900F900F90CF91DF910895DF9381
:102AF000CF9300D00F92CDB7DEB789838981282F7D
:102B000030E03B832A838A819B81009731F02A81C0
:102B10003B812130310539F00BC083E064E040E0B7
:102B20000E94991005C083E068E040E00E9499107F
:102B30000F900F900F90CF91DF910895DF93CF9377
:102B400000D000D0CDB7DEB789836A838981282F72
:102B500030E03C832B838B819C81009731F02B816B
:102B60003C812130310561F015C081E06FE040E02B
:102B70000E94991081E06FE04A810E9499100AC07A
:102B800081E06FE040E00E94991081E06FE04A81AF
:102B90000E9499100F900F900F900F90CF91DF919E
:102BA0000895DF93CF93CDB7DEB72C970FB6F89487
:102BB000DEBF0FBECDBF69877A878B879C871D825A
:102BC0001E821F82188627C019821A821B821C82CD
:102BD0000BC089819A81AB81BC810196A11DB11D79
:102BE00089839A83AB83BC8389819A81AB81BC81C1
:102BF000813B21E0920720E0A20720E0B20748F3E2
:102C00008D819E81AF81B8850196A11DB11D8D83F7
:102C10009E83AF83B8872D813E814F8158858985FA
:102C20009A85AB85BC85281739074A075B0760F290
:102C30002C960FB6F894DEBF0FBECDBFCF91DF91BB
:102C40000895DF93CF93CDB7DEB729970FB6F894E9
:102C5000DEBF0FBECDBF1A822A811F8281E08B8327
:102C60001D823D8180E48C831E8280E288874885B6
:102C7000198699852A831B8281E08C833D8380E4B9
:102C80008E831F8248879987CE0102960E94120A7E
:102C900080E00E940B1581E00E940B15198289E1EA
:102CA0000E94200B8431C1F480E069810E949E154E
:102CB00080E00E94501581E00E94771589818F5F26
:102CC000898368EE73E080E090E00E94D1158981ED
:102CD000893029F71982E3CF81E069810E949E152E
:102CE00081E00E94501580E00E94771589818F5FF6
:102CF000898368EE73E080E090E00E94D1158981BD
:102D0000893069F61982CBCFDF93CF93CDB7DEB789
:102D100028970FB6F894DEBF0FBECDBF80E1898340
:102D200029811E8281E08A831C823C8180E48B831E
:102D30001D8280E28F834F811886988529831A82AD
:102D400081E08B833C8380E48D831E824F83988750
:102D5000CE0101960E94120A60ED77E080E090E0DB
:102D60000E94D11584E10E94200B68EE73E080E0A0
:102D700090E00E94D115F6CFEF920F93DF93CF939F
:102D8000CDB7DEB728970FB6F894DEBF0FBECDBF24
:102D900089836A834B832C830D83EE828981282F5C
:102DA00030E038872F838F819885009731F02F810D
:102DB000388528303105A9F027C0E2E5F0E08C81A4
:102DC0008083E9E5F0E08E818083ECE5F0E08D81A1
:102DD0008083E3E5F0E09B818A81892B8068808392
:102DE00013C0E2E5F0E08C818083ECE5F0E08D81BA
:102DF0008083E9E5F0E08E818083E3E5F0E09B816C
:102E00008A81892B8068808328960FB6F894DEBF6C
:102E10000FBECDBFCF91DF910F91EF900895DF935B
:102E2000CF930F92CDB7DEB78983E2E5F0E08981D9
:102E300080830F90CF91DF910895DF93CF930F920E
:102E4000CDB7DEB7E2E5F0E08081898389810F901C
:102E5000CF91DF910895DF93CF93CDB7DEB7E3E550
:102E6000F0E081E08083CF91DF910895DF93CF93ED
:102E7000CDB7DEB7E3E5F0E01082CF91DF910895A2
:102E8000EF920F93DF93CF9300D0CDB7DEB79A8345
:102E9000898388E060E043E020E00AEFEE240E94AE
:102EA000BC1618C0E8E5F0E08081882F90E08270C1
:102EB00090700097B9F3A8E5B0E0E8E5F0E0808114
:102EC00082608C93E2E5F0E0108289819A8101971B
:102ED0009A83898389819A81009721F70E94361706
:102EE0000F900F90CF91DF910F91EF900895EF9297
:102EF0000F93DF93CF9300D0CDB7DEB79A8389834A
:102F000088E060E043E020E00AEFEE246894E1F816
:102F10000E94BC160F900F90CF91DF910F91EF9010
:102F20000895EF920F93DF93CF9300D000D0CDB7E9
:102F3000DEB769837A838B839C8388E060E041E01D
:102F400020E000E1EE240E94BC161DC0E2E5F0E0A6
:102F50009081ECE5F0E080819817C0F3A8E5B0E03F
:102F6000E8E5F0E0808182608C93E2E5F0E0108299
:102F700089819A81AB81BC810197A109B1098983BB
:102F80009A83AB83BC8389819A81AB81BC81009792
:102F9000A105B105D9F60E9436170F900F900F903A
:102FA0000F90CF91DF910F91EF900895DF93CF9322
:102FB00000D000D0CDB7DEB789836A83E2E5F0E0C8
:102FC0001082E9E5F0E01082ECE5F0E08981882FDD
:102FD00090E0982F882724E630E0B9010E94051C74
:102FE000CB0180838A81282F30E03C832B838B8127
:102FF0009C818330910529F12B813C81243031055E
:103000005CF48B819C818130910589F02B813C811E
:103010002230310589F023C08B819C818430910559
:10302000A9F02B813C8125303105A9F018C0E3E5DA
:10303000F0E089E6808313C0E3E5F0E08AE6808370
:103040000EC0E3E5F0E08BE6808309C0E3E5F0E045
:103050008CE6808304C0E3E5F0E08DE680830F908A
:103060000F900F900F90CF91DF910895DF93CF9342
:1030700000D000D0CDB7DEB789836A83E2E5F0E007
:103080001082E9E5F0E01082ECE5F0E08981882F1C
:1030900090E0982F882724E630E0B9010E94051CB3
:1030A000CB0180838A81282F30E03C832B838B8166
:1030B0009C818330910529F12B813C81243031059D
:1030C0005CF48B819C818130910589F02B813C815E
:1030D0002230310589F023C08B819C818430910599
:1030E000A9F02B813C8125303105A9F018C0E3E51A
:1030F000F0E081E6808313C0E3E5F0E082E68083C0
:103100000EC0E3E5F0E083E6808309C0E3E5F0E08C
:1031100084E6808304C0E3E5F0E085E680830F90D9
:103120000F900F900F90CF91DF910895EF920F9332
:10313000DF93CF9300D000D000D0CDB7DEB78B8324
:103140006C838B81843611F483E68B838C81282FEA
:1031500030E03E832D838D819E818330910531F057
:103160002D813E8125303105B9F160C086E08A832A
:103170008B81882F90E0AA2797FDA095BA2FBC01DC
:10318000CD010E944903DC01CB01BC01CD0120E04F
:1031900030E040E250E40E941F02DC01CB01BC01A0
:1031A000CD0120E030E040EC50E40E94F201DC016F
:1031B000CB01BC01CD010E944900DC01CB01898318
:1031C00080E060E043E02A8109810F2EF3E0EF2EDA
:1031D000F02D0E94BC162AC01A828B81882F90E0A5
:1031E000AA2797FDA095BA2FBC01CD010E944903E3
:1031F000DC01CB01BC01CD012AE037ED43E250E414
:103200000E941F02DC01CB01BC01CD010E944900DC
:10321000DC01CB01898380E060E045E02A810981FF
:103220000F2EF3E0EF2EF02D0E94BC168A818093C2
:10323000740126960FB6F894DEBF0FBECDBFCF91B6
:10324000DF910F91EF900895AF92CF92DF92EF92BE
:10325000FF920F931F93DF93CF93CDB7DEB72F97D6
:103260000FB6F894DEBF0FBECDBF89837B836A8320
:103270004C833E832D8318870F83FA86E986DC868C
:10328000CB86AD868981282F30E03F872E878E85BB
:103290009F858830910521F12E853F8528313105A4
:1032A00009F443C08E859F85009709F062C0EDE464
:1032B000F0E08D819E81892F99278083ECE4F0E0F6
:1032C0008D818083E9E5F0E08D858083EFE4F0E097
:1032D0008A8183608083EEE4F0E08C81808349C042
:1032E000EDE4F0E08D819E81892F99278083ECE4C5
:1032F000F0E08D818083E9E5F0E08D858083EBE46B
:10330000F0E08F819885892F99278083EAE4F0E0A7
:103310008F818083EFE4F0E08A8183608083EEE434
:10332000F0E08C818860808324C0EDE4F0E08D8142
:103330009E81892F99278083ECE4F0E08D81808342
:10334000E9E5F0E08D858083E7E4F0E08B859C85FE
:10335000892F99278083E6E4F0E08B858083EFE472
:10336000F0E08A8183608083EEE4F0E08C81886104
:1033700080832F960FB6F894DEBF0FBECDBFCF91DE
:10338000DF911F910F91FF90EF90DF90CF90AF9062
:103390000895DF93CF9300D0CDB7DEB79A838983AA
:1033A000EDE4F0E089819A81892F99278083ECE40C
:1033B000F0E0898180830F900F90CF91DF91089585
:1033C000DF93CF9300D0CDB7DEB7ECE4F0E080819F
:1033D00091819A83898389819A810F900F90CF91EF
:1033E000DF910895DF93CF93CDB7DEB7EEE4F0E041
:1033F00081E08083CF91DF910895DF93CF93CDB7A4
:10340000DEB7EEE4F0E01082CF91DF910895AF9245
:10341000CF92DF92EF92FF920F931F93DF93CF93A0
:1034200000D0CDB7DEB79A83898388E060E070E092
:1034300043E020E030E00AEF10E0EE24FF24CC244B
:10344000DD24AA240E94241919C0E8E5F0E0808157
:10345000882F90E0807190700097B9F3A8E5B0E0F4
:10346000E8E5F0E0808180618C93ECE4F0E011828B
:10347000108289819A8101979A83898389819A81AF
:10348000009719F70E94FD190F900F90CF91DF91CF
:103490001F910F91FF90EF90DF90CF90AF90089524
:1034A000AF92CF92DF92EF92FF920F931F93DF9331
:1034B000CF9300D000D0CDB7DEB769837A838B83FA
:1034C0009C8388E060E070E041E020E030E000E1D3
:1034D00010E0EE24FF24CC24DD24AA240E94241929
:1034E0001EC0E8E5F0E08081882F90E08071907048
:1034F0000097B9F3A8E5B0E0E8E5F0E080818260EC
:103500008C93E2E5F0E0108289819A81AB81BC81E5
:103510000197A109B10989839A83AB83BC8389810F
:103520009A81AB81BC810097A105B105D1F60E94BB
:10353000FD190F900F900F900F90CF91DF911F9179
:103540000F91FF90EF90DF90CF90AF900895DF93B1
:10355000CF9300D000D0CDB7DEB789836A83ECE487
:10356000F0E011821082E9E5F0E01082EAE4F0E098
:103570008981282F30E0C901880F991F820F931F7E
:10358000880F991F880F991F880F991F9183808337
:10359000E8E4F0E08981282F30E0C901880F991F05
:1035A000820F931F880F991F880F991F880F991FEB
:1035B000918380838A81282F30E03C832B838B8109
:1035C0009C8183309105C9F12B813C8124303105E8
:1035D0005CF48B819C818130910589F02B813C8149
:1035E00022303105D9F055C08B819C818430910502
:1035F00099F12B813C8125303105E9F14AC0E6E49F
:10360000F0E083EC99E091838083EFE4F0E082EADC
:103610008083EEE4F0E089E180833BC0E6E4F0E003
:1036200083EC99E091838083EFE4F0E082EA808389
:10363000EEE4F0E08AE180832CC0E6E4F0E083EC85
:1036400099E091838083EFE4F0E082EA8083EEE406
:10365000F0E08BE180831DC0E6E4F0E083EC99E0CC
:1036600091838083EFE4F0E082EA8083EEE4F0E08F
:103670008CE180830EC0E6E4F0E083EC99E0918376
:103680008083EFE4F0E082EA8083EEE4F0E08DE115
:1036900080830F900F900F900F90CF91DF9108953E
:1036A000DF93CF9300D000D0CDB7DEB789836A8394
:1036B000ECE4F0E011821082E9E5F0E01082EAE447
:1036C000F0E08981282F30E0C901880F991F820F0F
:1036D000931F880F991F880F991F880F991F918337
:1036E0008083E8E4F0E08981282F30E0C901880F69
:1036F000991F820F931F880F991F880F991F880F9A
:10370000991F918380838A81282F30E03C832B830B
:103710008B819C8183309105C9F12B813C812430C0
:1037200031055CF48B819C818130910589F02B817E
:103730003C8122303105D9F055C08B819C81843089
:10374000910599F12B813C8125303105E9F14AC081
:10375000E6E4F0E083EC99E091838083EFE4F0E02D
:1037600082EA8083EEE4F0E081E180833BC0E6E41E
:10377000F0E083EC99E091838083EFE4F0E082EA6B
:103780008083EEE4F0E082E180832CC0E6E4F0E0A8
:1037900083EC99E091838083EFE4F0E082EA808318
:1037A000EEE4F0E083E180831DC0E6E4F0E083EC2A
:1037B00099E091838083EFE4F0E082EA8083EEE495
:1037C000F0E084E180830EC0E6E4F0E083EC99E071
:1037D00091838083EFE4F0E082EA8083EEE4F0E01E
:1037E00085E180830F900F900F900F90CF91DF9124
:1037F0000895991B79E004C0991F961708F0961B4D
:10380000881F7A95C9F78095089597FB092E07269A
:103810000AD077FD04D00CD006D000201AF47095A1
:1038200061957F4F0895F6F7909581959F4F089584
:10383000AA1BBB1B51E107C0AA1FBB1FA617B707D6
:1038400010F0A61BB70B881F991F5A95A9F78095F2
:103850009095BC01CD0108952F923F924F925F92B7
:103860006F927F928F929F92AF92BF92CF92DF9290
:10387000EF92FF920F931F93CF93DF93CDB7DEB7F5
:10388000CA1BDB0B0FB6F894DEBF0FBECDBF099489
:103890002A88398848885F846E847D848C849B84E0
:1038A000AA84B984C884DF80EE80FD800C811B81EE
:1038B000AA81B981CE0FD11D0FB6F894DEBF0FBE1D
:0A38C000CDBFED010895F894FFCF8D
:1038CA0000000000000000000001020203030303DD
:1038DA000404040404040404050505050505050596
:1038EA000505050505050505060606060606060676
:1038FA00060606060606060606060606060606065E
:10390A000606060606060606070707070707070745
:10391A00070707070707070707070707070707072D
:10392A00070707070707070707070707070707071D
:10393A00070707070707070707070707070707070D
:10394A0007070707070707070808080808080808F5
:10395A0008080808080808080808080808080808DD
:10396A0008080808080808080808080808080808CD
:10397A0008080808080808080808080808080808BD
:10398A0008080808080808080808080808080808AD
:10399A00080808080808080808080808080808089D
:1039AA00080808080808080808080808080808088D
:1039BA00080808080808080808080808080808087D
:0839CA000808080808080808B5
:00000001FF
